:100000000C9434000C9446000C9446000C9446006A
:100010000C9446000C9446000C9446000C94460048
:100020000C9446000C9446000C9446000C94460038
:100030000C9446000C9446000C9446000C94460028
:100040000C944F000C9446000C9446000C9446000F
:100050000C9446000C9446000C9446000C94460008
:100060000C9446000C94460011241FBECFEFD8E03C
:10007000DEBFCDBF21E0A0E0B1E001C01D92A930FC
:10008000B207E1F70E944A010C9459010C94000058
:100090000895089590E080E00895089508951F92CE
:1000A0000F920FB60F9211242F933F938F939F932C
:1000B000AF93BF938091000190910101A091020143
:1000C000B09103013091080123E0230F2D3758F53B
:1000D0000196A11DB11D209308018093000190930A
:1000E0000101A0930201B09303018091040190915A
:1000F0000501A0910601B09107010196A11DB11D56
:100100008093040190930501A0930601B093070129
:10011000BF91AF919F918F913F912F910F900FBE03
:100120000F901F90189526E8230F0296A11DB11D70
:10013000D2CF2FB7F89460910001709101018091A6
:100140000201909103012FBF08953FB7F894809169
:10015000040190910501A0910601B091070126B517
:10016000A89B05C02F3F19F00196A11DB11D3FBFEF
:10017000BA2FA92F982F8827BC01CD01620F711DBE
:10018000811D911D42E0660F771F881F991F4A95B8
:10019000D1F708958F929F92AF92BF92CF92DF9244
:1001A000EF92FF926B017C010E94A5004B015C0164
:1001B000C114D104E104F104E9F00E9449010E9454
:1001C000A500681979098A099B09683E7340810571
:1001D000910570F321E0C21AD108E108F10888EE18
:1001E000880E83E0981EA11CB11CC114D104E10447
:1001F000F10429F7FF90EF90DF90CF90BF90AF9080
:100200009F908F9008958230910538F0880F991F44
:10021000880F991F05970197F1F70895789484B591
:10022000826084BD84B5816084BD85B5826085BDF2
:1002300085B5816085BDEEE6F0E0808181608083D8
:10024000E1E8F0E0108280818260808380818160BB
:100250008083E0E8F0E0808181608083E1EBF0E082
:10026000808184608083E0EBF0E080818160808326
:10027000EAE7F0E08081846080838081826080830F
:100280008081816080838081806880831092C1003A
:10029000089508950E940E010E944D000E94490099
:1002A000C0E0D0E00E9448002097E1F30E940000E7
:0602B000F9CFF894FFCF26
:00000001FF
