:100000000C9435000C945D000C945D000C945D0024
:100010000C945D000C945D000C945D000C945D00EC
:100020000C945D000C945D000C945D000C945D00DC
:100030000C945D000C945D000C945D000C945D00CC
:100040000C9474000C945D000C94CC020C94FE0291
:100050000C945D000C945D000C945D000C945D00AC
:100060000C945D000C945D00250611241FBECFEF9B
:10007000D8E0DEBFCDBF11E0A0E0B1E0EEE8F1E1F5
:1000800002C005900D92AE32B107D9F721E0AEE281
:10009000B1E001C01D92A43DB207E1F710E0C5E355
:1000A000D0E004C02197FE010E948306C433D1072B
:1000B000C9F70E9452060C94C5080C94000060E039
:1000C00071E087E391E00E94E20364EF71E080E079
:1000D00090E00C94EF0026E040E855E260E070E02C
:1000E00087E391E00C9448021F920F920FB60F9293
:1000F00011242F933F938F939F93AF93BF9380913E
:100100002E0190912F01A0913001B09131013091D9
:10011000360123E0230F2D3758F50196A11DB11D9F
:100120002093360180932E0190932F01A0933001EC
:10013000B09331018091320190913301A09134014B
:10014000B09135010196A11DB11D809332019093AC
:100150003301A0933401B0933501BF91AF919F91CA
:100160008F913F912F910F900FBE0F901F90189578
:1001700026E8230F0296A11DB11DD2CF2FB7F89408
:1001800060912E0170912F01809130019091310189
:100190002FBF08953FB7F8948091320190913301B9
:1001A000A0913401B091350126B5A89B05C02F3F21
:1001B00019F00196A11DB11D3FBFBA2FA92F982F8D
:1001C0008827BC01CD01620F711D811D911D42E088
:1001D000660F771F881F991F4A95D1F708958F9250
:1001E0009F92AF92BF92CF92DF92EF92FF926B01FC
:1001F0007C010E94CA004B015C01C114D104E104DE
:10020000F104E9F00E9424060E94CA0068197909E5
:100210008A099B09683E73408105910570F321E0CE
:10022000C21AD108E108F10888EE880E83E0981E12
:10023000A11CB11CC114D104E104F10429F7FF9001
:10024000EF90DF90CF90BF90AF909F908F900895E8
:100250008230910538F0880F991F880F991F0597F4
:100260000197F1F70895789484B5826084BD84B5D0
:10027000816084BD85B5826085BD85B5816085BDA1
:10028000EEE6F0E0808181608083E1E8F0E01082BA
:10029000808182608083808181608083E0E8F0E0FB
:1002A000808181608083E1EBF0E0808184608083E5
:1002B000E0EBF0E0808181608083EAE7F0E080811C
:1002C000846080838081826080838081816080837C
:1002D0008081806880831092C1000895FC01918D17
:1002E000228D892F90E0805C9F4F821B91098F7334
:1002F00099270895FC01918D828D981731F0828D98
:10030000E80FF11D858D90E008958FEF9FEF089520
:10031000FC01918D828D981761F0A28DAE0FBF2FD9
:10032000B11D5D968C91928D9F5F9F73928F90E02F
:1003300008958FEF9FEF0895FC01538D448D252F75
:1003400030E0842F90E0821B930B541710F0CF966F
:1003500008950197089584E293E0892B49F080E0A5
:1003600090E0892B29F00E94240381110C94000055
:100370000895FC01A48DA80FB92FB11DA35ABF4F3A
:100380002C91848D90E001968F739927848FA68994
:10039000B7892C93A089B1898C91837080648C93E8
:1003A000938D848D981306C00288F389E02D808197
:1003B0008F7D80830895CF93DF93EC01888D882310
:1003C000B9F0AA89BB89E889F9898C9185FD03C0B8
:1003D000808186FD0DC00FB607FCF7CF8C9185FF9D
:1003E000F2CF808185FFEDCFCE010E94B901E9CF28
:1003F000DF91CF910895EF92FF920F931F93CF93C8
:10040000DF93EC0181E0888F9B8D8C8D98131AC04F
:10041000E889F989808185FF15C09FB7F894EE8936
:10042000FF896083E889F989808183708064808393
:100430009FBF81E090E0DF91CF911F910F91FF90DE
:10044000EF900895F62E0B8D10E00F5F1F4F0F7386
:100450001127E02E8C8D8E110CC00FB607FCFACF41
:10046000E889F989808185FFF5CFCE010E94B90125
:10047000F1CFEB8DEC0FFD2FF11DE35AFF4FF08212
:100480009FB7F8940B8FEA89FB8980818062CFCF78
:10049000CF92DF92EF92FF921F93CF93DF93EC0105
:1004A0006A017B01122FE889F98982E08083C114F7
:1004B00081EED806E104F104A1F060E079E08DE37B
:1004C00090E0A70196010E9461062150310941097F
:1004D00051095695479537952795211580E138079D
:1004E00098F0E889F989108260E874E88EE190E07C
:1004F000A70196010E946106215031094109510965
:100500005695479537952795EC85FD853083EE8583
:10051000FF852083188EEC89FD891083EA89FB8989
:10052000808180618083EA89FB8980818860808303
:10053000EA89FB89808180688083EA89FB898081E0
:100540008F7D8083DF91CF911F91FF90EF90DF909F
:10055000CF900895CF93DF93EC01E881F981068075
:10056000F781E02D0995EA89FB8980818F7E808360
:10057000EA89FB898081877F8083EA89FB89808182
:100580008F778083EA89FB8980818F7D80838A8D44
:10059000898FDF91CF9108951F920F920FB60F921E
:1005A00011242F938F939F93EF93FF93E091470133
:1005B000F09148018081E0914D01F0914E0182FD62
:1005C0001BC09081809150018F5F8F7320915101EA
:1005D000821741F0E0915001F0E0E95CFE4F958F09
:1005E00080935001FF91EF919F918F912F910F90E8
:1005F0000FBE0F901F9018958081F4CF1F920F921D
:100600000FB60F9211242F933F934F935F936F93E5
:100610007F938F939F93AF93BF93EF93FF9387E362
:1006200091E00E94B901FF91EF91BF91AF919F912D
:100630008F917F916F915F914F913F912F910F908B
:100640000FBE0F901F90189587E391E00E946E01F6
:1006500021E0892B09F420E0822F089590E080E0CA
:10066000089508950895AF92BF92CF92DF92EF92CE
:10067000FF920F931F93CF93DF936C017B018B014C
:10068000040F151FEB015E01AE18BF08C017D1079C
:1006900059F06991D601ED91FC910190F081E02D26
:1006A000C6010995892B79F7C501DF91CF911F917B
:1006B0000F91FF90EF90DF90CF90BF90AF90089593
:1006C000FB0101900020E9F73197AF01461B570B62
:1006D000DC01ED91FC910280F381E02D0994EF9211
:1006E000FF920F931F93CF93DF938C017B01D0E098
:1006F000C0E0F701EC0FFD1F6491662361F0D801A3
:10070000ED91FC910190F081E02DC8010995892BB4
:1007100011F02196EECFCE01DF91CF911F910F9175
:10072000FF90EF900895DB0114964D915C91159721
:100730006D917C91DC01ED91FC910280F381E02DC3
:1007400009946115710511F00C94600390E080E04C
:100750000895DC01ED91FC910190F081E02D099468
:10076000DB01ED91FC9111970190F081E02DBC012E
:10077000CD0109946EE171E00C9460030F931F9317
:10078000CF93DF93EC010E946F038C01CE010E9496
:10079000BA03800F911FDF91CF911F910F910895A0
:1007A0000F931F93CF93DF93EC010E9493038C016F
:1007B000CE010E94BA03800F911FDF91CF911F914C
:1007C0000F9108950F931F93CF93DF938C01D0E087
:1007D000C0E06115710519F00E946003EC01C801C9
:1007E0000E94BA038C0F9D1FDF91CF911F910F9133
:1007F00008950F931F93CF93DF93EC010E94A903F9
:100800008C01CE010E94BA03800F911FDF91CF911E
:100810001F910F9108950F931F93CF93DF93EC01D6
:100820000E94B0038C01CE010E94BA03800F911F79
:10083000DF91CF911F910F9108958F929F92AF9268
:10084000BF92EF92FF920F931F93CF93DF93CDB799
:10085000DEB7A1970FB6F894DEBF0FBECDBF7C0107
:10086000FA01CB0119A2223008F42AE08E010F5DB3
:100870001F4F822E912CB12CA12CBF01A5019401F8
:100880000E946106F901CA016A300CF5605DD80169
:100890006E938D01232B242B252B79F790E080E09C
:1008A000109721F0BD01C7010E946003A1960FB609
:1008B000F894DEBF0FBECDBFDF91CF911F910F9196
:1008C000FF90EF90BF90AF909F908F900895695CDC
:1008D000DECFCF92DF92EF92FF920F931F93CF93D1
:1008E000DF932115310581F4DC01ED91FC9101903C
:1008F000F081E02D642FDF91CF911F910F91FF9038
:10090000EF90DF90CF9009942A30310501F52AE06D
:1009100077FF1DC06A017B01EC016DE20E94A90313
:100920008C0144275527BA014C195D096E097F09CE
:100930002AE0CE010E941D04800F911FDF91CF910C
:100940001F910F91FF90EF90DF90CF900895DF916E
:10095000CF911F910F91FF90EF90DF90CF900C946B
:100960001D049A01AB01770F660B770B0C94690499
:100970000F931F93CF93DF93EC010E94B1048C017E
:10098000CE010E94BA03800F911FDF91CF911F917A
:100990000F9108950F931F93CF93DF93EC010E9463
:1009A00069048C01CE010E94BA03800F911FDF9170
:1009B000CF911F910F9108952115310541F4DC016C
:1009C000ED91FC910190F081E02D642F09940C943D
:1009D0001D049A01462F50E070E060E00C94DC04A6
:1009E0000F931F93CF93DF93EC010E94E9048C01D6
:1009F000CE010E94BA03800F911FDF91CF911F910A
:100A00000F9108959A01AB0170E060E00C94DC0452
:100A10000F931F93CF93DF93EC010E9402058C018B
:100A2000CE010E94BA03800F911FDF91CF911F91D9
:100A30000F9108950F931F93CF93DF93EC010E94C2
:100A4000DC048C01CE010E94BA03800F911FDF915C
:100A5000CF911F910F9108952F923F924F925F92E5
:100A60006F927F928F929F92AF92BF92CF92DF92BE
:100A7000EF92FF921F93CF93DF93EC016A017B010A
:100A8000722EAB019601CB01B6010E94C00861E253
:100A900071E0811126C046015701E894B7F82FEFA5
:100AA0003FEF4FE75FE7C501B4010E94C008811125
:100AB0000CC02FEF3FEF4FE75FE7C501B4010E9485
:100AC000F60665E271E0181664F02FEF3FEF4FE78E
:100AD0005FE4C701B6010E944E081816B4F469E23B
:100AE00071E0CE01DF91CF911F91FF90EF90DF90E9
:100AF000CF90BF90AF909F908F907F906F905F90BE
:100B00004F903F902F900C9460032FEF3FEF4FE7F3
:100B10005FECC701B6010E94F60687FDE0CF20E03A
:100B200030E0A901C701B6010E94F606312C212C44
:100B300087FF09C06DE2CE010E94A9031C01F7FAEC
:100B4000F094F7F8F09410E060E070E080E09FE34C
:100B5000711641F020E030E040E251E40E94FB06D3
:100B60001F5FF6CFA70196010E948A062B013C0168
:100B70000E946D074B015C012AE0BC01A401CE017B
:100B80000E941D047C01E20CF31C1123B1F1C5018C
:100B9000B4010E949C079B01AC01C301B2010E94F9
:100BA00089064B015C016EE2CE010E94A903E80EAA
:100BB000F91E115010F120E030E040E251E4C5018F
:100BC000B4010E9453082B013C010E946D074B01A8
:100BD0004AE050E0CE010E940205E80EF91EB40181
:100BE00090E080E00E949C079B01AC01C301B20130
:100BF0000E9489064B015C01DCCFC701DF91CF91D8
:100C00001F91FF90EF90DF90CF90BF90AF909F909B
:100C10008F907F906F905F904F903F902F900895AE
:100C20000C942C050F931F93CF93DF93EC010E943C
:100C30002C058C01CE010E94BA03800F911FDF9119
:100C4000CF911F910F9108950895E7E3F1E013828A
:100C5000128288EE93E0A0E0B0E084839583A683BF
:100C6000B78380E191E09183808385EC90E0958764
:100C7000848784EC90E09787868780EC90E0918B66
:100C8000808B81EC90E0938B828B82EC90E0958B53
:100C9000848B86EC90E0978B868B118E128E138E50
:100CA000148E08950E9433010E9431030E946B004C
:100CB000CBEAD1E00E945F002097E1F30E94AB01F4
:100CC000F9CFA1E21A2EAA1BBB1BFD010DC0AA1F62
:100CD000BB1FEE1FFF1FA217B307E407F50720F0A5
:100CE000A21BB30BE40BF50B661F771F881F991F20
:100CF0001A9469F760957095809590959B01AC0169
:100D0000BD01CF010895EE0FFF1F0590F491E02D76
:100D100009945058BB27AA270E94A1060C941408D6
:100D20000E94060838F00E940D0820F039F49F3F19
:100D300019F426F40C9403080EF4E095E7FB0C94E8
:100D4000FD07E92F0E94250858F3BA1762077307B9
:100D50008407950720F079F4A6F50C9447080EF463
:100D6000E0950B2EBA2FA02D0B01B90190010C01BB
:100D7000CA01A0011124FF27591B99F0593F50F4D3
:100D8000503E68F11A16F040A22F232F342F44272B
:100D9000585FF3CF469537952795A795F040539523
:100DA000C9F77EF41F16BA0B620B730B840BBAF0F3
:100DB0009150A1F0FF0FBB1F661F771F881FC2F75E
:100DC0000EC0BA0F621F731F841F48F48795779572
:100DD0006795B795F7959E3F08F0B0CF9395880F2C
:100DE00008F09927EE0F9795879508950E94D907E7
:100DF00008F481E008950E940F070C9414080E94E3
:100E00000D0858F00E94060840F029F45F3F29F0D1
:100E10000C94FD0751110C9448080C9403080E948F
:100E2000250868F39923B1F3552391F3951B550BCE
:100E3000BB27AA2762177307840738F09F5F5F4FAD
:100E4000220F331F441FAA1FA9F335D00E2E3AF0EC
:100E5000E0E832D091505040E695001CCAF72BD004
:100E6000FE2F29D0660F771F881FBB1F2617370755
:100E70004807AB07B0E809F0BB0B802DBF01FF2787
:100E800093585F4F3AF09E3F510578F00C94FD0760
:100E90000C9448085F3FE4F3983ED4F38695779529
:100EA0006795B795F7959F5FC9F7880F911D969540
:100EB000879597F90895E1E0660F771F881FBB1F9C
:100EC000621773078407BA0720F0621B730B840B49
:100ED000BA0BEE1F88F7E09508950E942D0888F060
:100EE0009F5798F0B92F9927B751B0F0E1F0660FEE
:100EF000771F881F991F1AF0BA95C9F714C0B1302F
:100F000091F00E944708B1E008950C944708672FBC
:100F1000782F8827B85F39F0B93FCCF3869577955D
:100F20006795B395D9F73EF4909580957095619546
:100F30007F4F8F4F9F4F0895E89409C097FB3EF471
:100F400090958095709561957F4F8F4F9F4F992316
:100F5000A9F0F92F96E9BB279395F6958795779594
:100F60006795B795F111F8CFFAF4BB0F11F460FF54
:100F70001BC06F5F7F4F8F4F9F4F16C0882311F0AC
:100F800096E911C0772321F09EE8872F762F05C0C0
:100F9000662371F096E8862F70E060E02AF09A955B
:100FA000660F771F881FDAF7880F9695879597F950
:100FB0000895990F0008550FAA0BE0E8FEEF1616EA
:100FC0001706E807F907C0F012161306E407F5073D
:100FD00098F0621B730B840B950B39F40A2661F0B1
:100FE000232B242B252B21F408950A2609F4A14054
:100FF000A6958FEF811D811D089597F99F6780E861
:1010000070E060E008959FEF80EC089500240A945A
:101010001616170618060906089500240A941216D3
:101020001306140605060895092E0394000C11F406
:10103000882352F0BB0F40F4BF2B11F460FF04C0B3
:101040006F5F7F4F8F4F9F4F089557FD9058440F0C
:10105000551F59F05F3F71F04795880F97FB991F17
:1010600061F09F3F79F087950895121613061406D4
:10107000551FF2CF4695F1DF08C016161706180661
:10108000991FF1CF86957105610508940895E8943C
:10109000BB2766277727CB0197F908950E94D907C8
:1010A00008F48FEF08950E9466080C9414080E94BB
:1010B000060838F00E940D0820F0952311F00C94DA
:1010C000FD070C94030811240C9448080E9425087D
:1010D00070F3959FC1F3950F50E0551F629FF0018B
:1010E000729FBB27F00DB11D639FAA27F00DB11DA4
:1010F000AA1F649F6627B00DA11D661F829F22272D
:10110000B00DA11D621F739FB00DA11D621F839FB3
:10111000A00D611D221F749F3327A00D611D231F89
:10112000849F600D211D822F762F6A2F11249F57D7
:1011300050409AF0F1F088234AF0EE0FFF1FBB1FDA
:10114000661F771F881F91505040A9F79E3F510599
:1011500080F00C94FD070C9448085F3FE4F3983E40
:10116000D4F3869577956795B795F795E7959F5F43
:10117000C1F7FE2B880F911D9695879597F90895D5
:0E1180000E94D907880B990B0895F894FFCFB1
:10118E0048656C6C6F20576F726C64000000000035
:10119E00FB0133039C01DB016E0188017A010D0A0C
:0E11AE00006E616E00696E66006F766600006E
:00000001FF
