:100000000C9435000C945D000C945D000C945D0024
:100010000C945D000C945D000C945D000C945D00EC
:100020000C945D000C945D000C945D000C945D00DC
:100030000C945D000C945D000C945D000C945D00CC
:100040000C946E000C945D000C94C6020C94F802A3
:100050000C945D000C945D000C945D000C945D00AC
:100060000C945D000C945D001F0611241FBECFEFA1
:10007000D8E0DEBFCDBF11E0A0E0B1E0E2E8F1E101
:1000800002C005900D92A232B107D9F721E0A2E299
:10009000B1E001C01D92A83CB207E1F710E0C5E352
:1000A000D0E004C02197FE010E947D06C433D10731
:1000B000C9F70E944C060C94BF080C94000068EE2F
:1000C00073E080E090E00C94E90026E040E855E21F
:1000D00060E070E08BE291E00C9442021F920F927C
:1000E0000FB60F9211242F933F938F939F93AF934B
:1000F000BF938091220190912301A0912401B0919E
:10010000250130912A0123E0230F2D3758F5019660
:10011000A11DB11D20932A018093220190932301F8
:10012000A0932401B093250180912601909127018D
:10013000A0912801B09129010196A11DB11D8093C4
:10014000260190932701A0932801B0932901BF9124
:10015000AF919F918F913F912F910F900FBE0F9074
:100160001F90189526E8230F0296A11DB11DD2CF2E
:100170002FB7F8946091220170912301809124019E
:10018000909125012FBF08953FB7F89480912601E3
:1001900090912701A0912801B091290126B5A89B33
:1001A00005C02F3F19F00196A11DB11D3FBFBA2F09
:1001B000A92F982F8827BC01CD01620F711D811DC9
:1001C000911D42E0660F771F881F991F4A95D1F74E
:1001D00008958F929F92AF92BF92CF92DF92EF924B
:1001E000FF926B017C010E94C4004B015C01C114B1
:1001F000D104E104F104E9F00E941E060E94C4004B
:10020000681979098A099B09683E7340810591053F
:1002100070F321E0C21AD108E108F10888EE880ED7
:1002200083E0981EA11CB11CC114D104E104F104A7
:1002300029F7FF90EF90DF90CF90BF90AF909F9005
:100240008F9008958230910538F0880F991F880F9C
:10025000991F05970197F1F70895789484B5826006
:1002600084BD84B5816084BD85B5826085BD85B55A
:10027000816085BDEEE6F0E0808181608083E1E809
:10028000F0E0108280818260808380818160808341
:10029000E0E8F0E0808181608083E1EBF0E0808144
:1002A00084608083E0EBF0E0808181608083EAE716
:1002B000F0E080818460808380818260808380819F
:1002C000816080838081806880831092C10008955E
:1002D000FC01918D228D892F90E0805C9F4F821BC5
:1002E00091098F7399270895FC01918D828D98173C
:1002F00031F0828DE80FF11D858D90E008958FEF2C
:100300009FEF0895FC01918D828D981761F0A28D69
:10031000AE0FBF2FB11D5D968C91928D9F5F9F7325
:10032000928F90E008958FEF9FEF0895FC01538D19
:10033000448D252F30E0842F90E0821B930B5417BF
:1003400010F0CF960895019708958EE193E0892BE0
:1003500049F080E090E0892B29F00E941E03811172
:100360000C9400000895FC01A48DA80FB92FB11DB5
:10037000A35ABF4F2C91848D90E001968F739927DB
:10038000848FA689B7892C93A089B1898C918370B9
:1003900080648C93938D848D981306C00288F389B2
:1003A000E02D80818F7D80830895CF93DF93EC01D2
:1003B000888D8823B9F0AA89BB89E889F9898C914D
:1003C00085FD03C0808186FD0DC00FB607FCF7CF09
:1003D0008C9185FFF2CF808185FFEDCFCE010E9409
:1003E000B301E9CFDF91CF910895EF92FF920F9380
:1003F0001F93CF93DF93EC0181E0888F9B8D8C8DD1
:1004000098131AC0E889F989808185FF15C09FB7C4
:10041000F894EE89FF896083E889F9898081837087
:10042000806480839FBF81E090E0DF91CF911F9136
:100430000F91FF90EF900895F62E0B8D10E00F5F57
:100440001F4F0F731127E02E8C8D8E110CC00FB62D
:1004500007FCFACFE889F989808185FFF5CFCE01C5
:100460000E94B301F1CFEB8DEC0FFD2FF11DE35A8C
:10047000FF4FF0829FB7F8940B8FEA89FB89808148
:100480008062CFCFCF92DF92EF92FF921F93CF93F4
:10049000DF93EC016A017B01122FE889F98982E080
:1004A0008083C11481EED806E104F104A1F060E07C
:1004B00079E08DE390E0A70196010E945B06215050
:1004C00031094109510956954795379527952115C9
:1004D00080E1380798F0E889F989108260E874E8CB
:1004E0008EE190E0A70196010E945B062150310940
:1004F000410951095695479537952795EC85FD8516
:100500003083EE85FF852083188EEC89FD8910836A
:10051000EA89FB89808180618083EA89FB89808107
:1005200088608083EA89FB89808180688083EA898A
:10053000FB8980818F7D8083DF91CF911F91FF9018
:10054000EF90DF90CF900895CF93DF93EC01E88197
:10055000F9810680F781E02D0995EA89FB89808180
:100560008F7E8083EA89FB898081877F8083EA8907
:10057000FB8980818F778083EA89FB8980818F7DE9
:1005800080838A8D898FDF91CF9108951F920F927A
:100590000FB60F9211242F938F939F93EF93FF9396
:1005A000E0913B01F0913C018081E0914101F091AB
:1005B000420182FD1BC09081809144018F5F8F7347
:1005C00020914501821741F0E0914401F0E0E55DA2
:1005D000FE4F958F80934401FF91EF919F918F91F2
:1005E0002F910F900FBE0F901F9018958081F4CF20
:1005F0001F920F920FB60F9211242F933F934F9398
:100600005F936F937F938F939F93AF93BF93EF937A
:10061000FF938BE291E00E94B301FF91EF91BF91B4
:10062000AF919F918F917F916F915F914F913F918A
:100630002F910F900FBE0F901F9018958BE291E0B5
:100640000E94680121E0892B09F420E0822F08959F
:1006500090E080E0089508950895AF92BF92CF9200
:10066000DF92EF92FF920F931F93CF93DF936C0172
:100670007B018B01040F151FEB015E01AE18BF0853
:10068000C017D10759F06991D601ED91FC91019005
:10069000F081E02DC6010995892B79F7C501DF911D
:1006A000CF911F910F91FF90EF90DF90CF90BF906F
:1006B000AF900895FB0101900020E9F73197AF0159
:1006C000461B570BDC01ED91FC910280F381E02D7C
:1006D0000994EF92FF920F931F93CF93DF938C01B6
:1006E0007B01D0E0C0E0F701EC0FFD1F64916623B1
:1006F00061F0D801ED91FC910190F081E02DC801ED
:100700000995892B11F02196EECFCE01DF91CF9183
:100710001F910F91FF90EF900895DB0114964D917A
:100720005C9115976D917C91DC01ED91FC910280BB
:10073000F381E02D09946115710511F00C945A03B1
:1007400090E080E00895DC01ED91FC910190F08152
:10075000E02D0994DB01ED91FC9111970190F0815E
:10076000E02DBC01CD01099462E171E00C945A03C3
:100770000F931F93CF93DF93EC010E9469038C01C9
:10078000CE010E94B403800F911FDF91CF911F9182
:100790000F9108950F931F93CF93DF93EC010E9465
:1007A0008D038C01CE010E94B403800F911FDF9155
:1007B000CF911F910F9108950F931F93CF93DF93C4
:1007C0008C01D0E0C0E06115710519F00E945A0358
:1007D000EC01C8010E94B4038C0F9D1FDF91CF91E3
:1007E0001F910F9108950F931F93CF93DF93EC0107
:1007F0000E94A3038C01CE010E94B403800F911FBD
:10080000DF91CF911F910F9108950F931F93CF9375
:10081000DF93EC010E94AA038C01CE010E94B40375
:10082000800F911FDF91CF911F910F9108958F92AB
:100830009F92AF92BF92EF92FF920F931F93CF932D
:10084000DF93CDB7DEB7A1970FB6F894DEBF0FBE2A
:10085000CDBF7C01FA01CB0119A2223008F42AE0B5
:100860008E010F5D1F4F822E912CB12CA12CBF0148
:10087000A50194010E945B06F901CA016A300CF5DA
:10088000605DD8016E938D01232B242B252B79F7E6
:1008900090E080E0109721F0BD01C7010E945A034B
:1008A000A1960FB6F894DEBF0FBECDBFDF91CF91FA
:1008B0001F910F91FF90EF90BF90AF909F908F90FE
:1008C0000895695CDECFCF92DF92EF92FF920F9393
:1008D0001F93CF93DF932115310581F4DC01ED9156
:1008E000FC910190F081E02D642FDF91CF911F9159
:1008F0000F91FF90EF90DF90CF9009942A3031054F
:1009000001F52AE077FF1DC06A017B01EC016DE271
:100910000E94A3038C0144275527BA014C195D0995
:100920006E097F092AE0CE010E941704800F911FF3
:10093000DF91CF911F910F91FF90EF90DF90CF90BB
:100940000895DF91CF911F910F91FF90EF90DF906D
:10095000CF900C9417049A01AB01770F660B770BBD
:100960000C9463040F931F93CF93DF93EC010E94C9
:10097000AB048C01CE010E94B403800F911FDF9164
:10098000CF911F910F9108950F931F93CF93DF93F2
:10099000EC010E9463048C01CE010E94B403800F1D
:1009A000911FDF91CF911F910F910895211531056E
:1009B00041F4DC01ED91FC910190F081E02D642F78
:1009C00009940C9417049A01462F50E070E060E0FF
:1009D0000C94D6040F931F93CF93DF93EC010E94E6
:1009E000E3048C01CE010E94B403800F911FDF91BC
:1009F000CF911F910F9108959A01AB0170E060E0D3
:100A00000C94D6040F931F93CF93DF93EC010E94B5
:100A1000FC048C01CE010E94B403800F911FDF9172
:100A2000CF911F910F9108950F931F93CF93DF9351
:100A3000EC010E94D6048C01CE010E94B403800F09
:100A4000911FDF91CF911F910F9108952F923F92A7
:100A50004F925F926F927F928F929F92AF92BF92CE
:100A6000CF92DF92EF92FF921F93CF93DF93EC012F
:100A70006A017B01722EAB019601CB01B6010E9487
:100A8000BA0865E171E0811126C046015701E8947A
:100A9000B7F82FEF3FEF4FE75FE7C501B4010E94C2
:100AA000BA0881110CC02FEF3FEF4FE75FE7C50198
:100AB000B4010E94F00669E171E0181664F02FEFAE
:100AC0003FEF4FE75FE4C701B6010E9448081816E0
:100AD000B4F46DE171E0CE01DF91CF911F91FF90F1
:100AE000EF90DF90CF90BF90AF909F908F907F90CE
:100AF0006F905F904F903F902F900C945A032FEF80
:100B00003FEF4FE75FECC701B6010E94F00687FD9B
:100B1000E0CF20E030E0A901C701B6010E94F00655
:100B2000312C212C87FF09C06DE2CE010E94A30366
:100B30001C01F7FAF094F7F8F09410E060E070E030
:100B400080E09FE3711641F020E030E040E251E4A4
:100B50000E94F5061F5FF6CFA70196010E9484064A
:100B60002B013C010E9467074B015C012AE0BC019C
:100B7000A401CE010E9417047C01E20CF31C112396
:100B8000B1F1C501B4010E9496079B01AC01C301FC
:100B9000B2010E9483064B015C016EE2CE010E940D
:100BA000A303E80EF91E115010F120E030E040E2FE
:100BB00051E4C501B4010E944D082B013C010E9483
:100BC00067074B014AE050E0CE010E94FC04E80EAA
:100BD000F91EB40190E080E00E9496079B01AC01F1
:100BE000C301B2010E9483064B015C01DCCFC70147
:100BF000DF91CF911F91FF90EF90DF90CF90BF904A
:100C0000AF909F908F907F906F905F904F903F90AC
:100C10002F9008950C9426050F931F93CF93DF9385
:100C2000EC010E9426058C01CE010E94B403800FC6
:100C3000911FDF91CF911F910F9108950895EBE2DD
:100C4000F1E01382128288EE93E0A0E0B0E08483AA
:100C50009583A683B78384E091E09183808385ECBC
:100C600090E09587848784EC90E09787868780EC76
:100C700090E0918B808B81EC90E0938B828B82EC67
:100C800090E0958B848B86EC90E0978B868B118E11
:100C9000128E138E148E08950E942D010E942B0334
:100CA0000E946500C5EAD1E00E945F002097E1F351
:100CB0000E94A501F9CFA1E21A2EAA1BBB1BFD01C0
:100CC0000DC0AA1FBB1FEE1FFF1FA217B307E4072B
:100CD000F50720F0A21BB30BE40BF50B661F771F83
:100CE000881F991F1A9469F7609570958095909563
:100CF0009B01AC01BD01CF010895EE0FFF1F0590D0
:100D0000F491E02D09945058BB27AA270E949B0616
:100D10000C940E080E94000838F00E94070820F08A
:100D200039F49F3F19F426F40C94FD070EF4E09576
:100D3000E7FB0C94F707E92F0E941F0858F3BA1736
:100D4000620773078407950720F079F4A6F50C94E1
:100D500041080EF4E0950B2EBA2FA02D0B01B9011E
:100D600090010C01CA01A0011124FF27591B99F021
:100D7000593F50F4503E68F11A16F040A22F232F2D
:100D8000342F4427585FF3CF469537952795A7957D
:100D9000F0405395C9F77EF41F16BA0B620B730B24
:100DA000840BBAF09150A1F0FF0FBB1F661F771F95
:100DB000881FC2F70EC0BA0F621F731F841F48F44A
:100DC000879577956795B795F7959E3F08F0B0CFD3
:100DD0009395880F08F09927EE0F979587950895BA
:100DE0000E94D30708F481E008950E9409070C943B
:100DF0000E080E94070858F00E94000840F029F4ED
:100E00005F3F29F00C94F70751110C9442080C94A1
:100E1000FD070E941F0868F39923B1F3552391F34E
:100E2000951B550BBB27AA2762177307840738F059
:100E30009F5F5F4F220F331F441FAA1FA9F335D0B6
:100E40000E2E3AF0E0E832D091505040E695001C6A
:100E5000CAF72BD0FE2F29D0660F771F881FBB1F24
:100E6000261737074807AB07B0E809F0BB0B802D02
:100E7000BF01FF2793585F4F3AF09E3F510578F02E
:100E80000C94F7070C9442085F3FE4F3983ED4F3C8
:100E9000869577956795B795F7959F5FC9F7880F02
:100EA000911D9695879597F90895E1E0660F771F54
:100EB000881FBB1F621773078407BA0720F0621BE5
:100EC000730B840BBA0BEE1F88F7E09508950E9410
:100ED000270888F09F5798F0B92F9927B751B0F09D
:100EE000E1F0660F771F881F991F1AF0BA95C9F7AE
:100EF00014C0B13091F00E944108B1E008950C9403
:100F00004108672F782F8827B85F39F0B93FCCF3B5
:100F1000869577956795B395D9F73EF4909580952A
:100F2000709561957F4F8F4F9F4F0895E89409C04A
:100F300097FB3EF490958095709561957F4F8F4F0C
:100F40009F4F9923A9F0F92F96E9BB279395F69522
:100F5000879577956795B795F111F8CFFAF4BB0FA0
:100F600011F460FF1BC06F5F7F4F8F4F9F4F16C004
:100F7000882311F096E911C0772321F09EE8872F8E
:100F8000762F05C0662371F096E8862F70E060E04A
:100F90002AF09A95660F771F881FDAF7880F9695C3
:100FA000879597F90895990F0008550FAA0BE0E867
:100FB000FEEF16161706E807F907C0F0121613061B
:100FC000E407F50798F0621B730B840B950B39F45B
:100FD0000A2661F0232B242B252B21F408950A26C1
:100FE00009F4A140A6958FEF811D811D089597F901
:100FF0009F6780E870E060E008959FEF80EC0895BF
:1010000000240A94161617061806090608950024E7
:101010000A9412161306140605060895092E039461
:10102000000C11F4882352F0BB0F40F4BF2B11F4D5
:1010300060FF04C06F5F7F4F8F4F9F4F089557FD34
:101040009058440F551F59F05F3F71F04795880F36
:1010500097FB991F61F09F3F79F0879508951216CD
:1010600013061406551FF2CF4695F1DF08C0161679
:1010700017061806991FF1CF86957105610508942A
:101080000895E894BB2766277727CB0197F9089541
:101090000E94D30708F48FEF08950E9460080C9413
:1010A0000E080E94000838F00E94070820F09523DF
:1010B00011F00C94F7070C94FD0711240C944208CE
:1010C0000E941F0870F3959FC1F3950F50E0551FC4
:1010D000629FF001729FBB27F00DB11D639FAA278D
:1010E000F00DB11DAA1F649F6627B00DA11D661FDC
:1010F000829F2227B00DA11D621F739FB00DA11DFD
:10110000621F839FA00D611D221F749F3327A00DB6
:10111000611D231F849F600D211D822F762F6A2F52
:1011200011249F5750409AF0F1F088234AF0EE0FB7
:10113000FF1FBB1F661F771F881F91505040A9F7E4
:101140009E3F510580F00C94F7070C9442085F3FD6
:10115000E4F3983ED4F3869577956795B795F79520
:10116000E7959F5FC1F7FE2B880F911D9695879598
:1011700097F908950E94D307880B990B0895F89466
:02118000FFCF9F
:1011820000000000F5012D039601D50168018201DE
:1011920074010D0A006E616E00696E66006F7666FC
:0211A20000004B
:00000001FF
