:100000000C9464000C948C000C948C000C949F0154
:100010000C949F010C949F010C948C000C948C0008
:100020000C948C000C948C000C948C000C948C0020
:100030000C948C000C948C000C948C000C948C0010
:100040000C942F030C948C000C9443060C947506AE
:100050000C948C000C948C000C948C000C948C00F0
:100060000C948C000C948C0000000008000201002D
:100070000003040700000000000000000102040863
:100080001020408001020408102001020408102002
:10009000040404040404040402020202020203032E
:1000A00003030303000000002300260029000000D2
:1000B0000000250028002B0000000000240027007D
:1000C0002A00A009AA099C0911241FBECFEFD8E07D
:1000D000DEBFCDBF11E0A0E0B1E0ECE3F9E102C08A
:1000E00005900D92AA33B107D9F722E0AAE3B1E057
:1000F00001C01D92A334B207E1F710E0C3E6D0E0DF
:1001000004C02197FE010E944F0AC136D107C9F7EA
:100110000E94D7090C94910C0C94000060E071E0EF
:100120008AE391E00E94590768EE73E080E090E076
:100130000C94AA0326E040E855E260E070E086EA0D
:1001400091E00E94BF0540E855E260E070E08AE37C
:1001500091E00C94A40220919B0130919C012817FE
:100160003907B9F49091590180915A01981789F093
:10017000E0915901F0E0E55AFE4F8081209159014C
:1001800030E02F5F3F4F2F7333272093590190E0CA
:1001900008958FEF9FEF0895EF92FF920F931F93B3
:1001A000CF93DF93DC015C96ED90FC905D97E114BA
:1001B000F10479F481E090E013969C938E9312976A
:1001C00090E080E0DF91CF911F910F91FF90EF9031
:1001D00008955196ED91FC91529750968C915097BD
:1001E000982F90950FB75E962C915E97122F1270F4
:1001F00021FD6095F8942081112319F1282B20838B
:10020000E7012197F1F728E0462F50E0308160FFA9
:100210001AC0382B3083E7012197F1F7BA017595A1
:100220006795215089F7112381F08081892380838C
:100230000FBF5C968D919C910197F1F781E090E062
:10024000C1CF2923DCCF3923E5CF9081892BEFCF94
:10025000089520919B0130919C012817390771F472
:100260009091590180915A01981741F0E0915901FC
:10027000F0E0E55AFE4F808190E008958FEF9FEF08
:10028000089520919B0130919C012817390771F442
:1002900080915A012091590190E0805C9F4F821B10
:1002A000910960E470E00E94E609089590E080E022
:1002B0000895E0919B01F0919C01E817F90769F41A
:1002C000A389B4899C918589809589238C93109208
:1002D0009C0110929B0181E0089580E00895CF93E6
:1002E000DF93EC018A8D9B8D892B01F180919B011D
:1002F00090919C018C179D07C9F0009711F00E9406
:1003000059018E8D8E7F8E8F10925A011092590155
:10031000D0939C01C0939B01EB89FC8980819D89CE
:10032000892B808381E0DF91CF91089580E0FBCF1E
:10033000FC01A685B7859C918585892308951F9228
:100340000F920FB60F9211242F933F934F935F9309
:100350006F937F938F939F93AF93BF93EF93FF938D
:10036000E0919B01F0919C01309749F0A685B785FB
:100370008585968D91FF14C09C918923A1F4FF91EE
:10038000EF91BF91AF919F918F917F916F915F910D
:100390004F913F912F910F900FBE0F901F90189586
:1003A0009C91892361F7A389B4899C918589809563
:1003B00089238C93868997890197F1F7608D718DD8
:1003C000A685B785558538E020E0CB010197F1F788
:1003D000822F90E095958795282F4C91452309F021
:1003E0002068315091F7868D81FD209580915A01CA
:1003F00090E001968F73992730915901381799F041
:10040000A0915A01B0E0A55ABE4F2C9380935A0197
:10041000828D938D0197F1F7A389B4898C91958989
:10042000892B8C93ACCF868D8160868FF1CF2AE0AB
:1004300031E0FC01318320830C9459011F93CF9349
:10044000DF93EC01162F6E8D6695617081E0682751
:10045000812F0E948E0461E0812F0E945204812F1F
:1004600090E0FC01E458FF4FE491E88BFC01E05779
:10047000FF4FE491F0E0EE0FFF1FE255FF4F859133
:1004800094919A8B898BDF91CF911F9108951F933F
:10049000CF93DF93EC01162F60E0812F0E9452046E
:1004A0008E8D81FD04C061E0812F0E948E041C8727
:1004B000812F90E0FC01E458FF4FE491ED87FC01AF
:1004C000E057FF4FE491F0E0EE0FFF1FEC55FF4FB8
:1004D000859194919F878E87DF91CF911F91089589
:1004E0001F93CF93DF93EC01162F1B821A8288EEA5
:1004F00093E0A0E0B0E08C839D83AE83BF838AE06D
:1005000091E0998388831F8A1E8A198E188E1B8E0C
:100510001A8E1D8E1C8E8E8D8E7F20FB81F98E8F04
:10052000642FCE010E941E02612FCE01DF91CF9178
:100530001F910C9447026817790718F4861B970BD4
:10054000089581E090E00895CF93DF93EC019A0144
:10055000AB011B8E1A8E198E188E1F8A1E8A60E0C0
:1005600079E08DE390E00E941C0AF901C90103972C
:100570002430310510F481E090E09D8F8C8F6C85E4
:10058000663108F052C0C90196958795843191056E
:1005900008F450C043979F8B8E8BC90105973697FF
:1005A00010F481E090E0998F888FC901880F991F1E
:1005B000280F391F36952795369527952D3031050B
:1005C000E0F12C5031093B8F2A8F9091680084E034
:1005D000683048F021E06E3008F420E081E001C08E
:1005E000880F2A95EAF7892B809368009C852DE671
:1005F00030E0983050F02BE630E09E3030F02CE6C2
:1006000030E0963110F030E020E03C8B2B8B292F2E
:1006100030E09830A8F481E001C0880F9A95EAF79D
:100620008D8B8C8D9D8D0197F1F7CE01DF91CF9150
:100630000C946F0181E090E0AECF21E030E0C3CFB9
:100640009E3040F42850310981E001C0880F2A957E
:10065000EAF7E6CF2E503109F7CF0C9459011F92DB
:100660000F920FB60F9211242F933F938F939F9366
:10067000AF93BF9380919D0190919E01A0919F01A6
:10068000B091A0013091A50123E0230F2D3758F53B
:100690000196A11DB11D2093A50180939D0190930A
:1006A0009E01A0939F01B093A0018091A101909120
:1006B000A201A091A301B091A4010196A11DB11DB9
:1006C0008093A1019093A201A093A301B093A401F0
:1006D000BF91AF919F918F913F912F910F900FBE3E
:1006E0000F901F90189526E8230F0296A11DB11DAB
:1006F000D2CF2FB7F89460919D0170919E018091A7
:100700009F019091A0012FBF08953FB7F894809169
:10071000A1019091A201A091A301B091A40126B5DD
:10072000A89B05C02F3F19F00196A11DB11D3FBF29
:10073000BA2FA92F982F8827BC01CD01620F711DF8
:10074000811D911D42E0660F771F881F991F4A95F2
:10075000D1F708958F929F92AF92BF92CF92DF927E
:10076000EF92FF926B017C010E9485034B015C01BB
:10077000C114D104E104F104E9F00E949B090E9434
:100780008503681979098A099B09683E73408105C8
:10079000910570F321E0C21AD108E108F10888EE52
:1007A000880E83E0981EA11CB11CC114D104E10481
:1007B000F10429F7FF90EF90DF90CF90BF90AF90BA
:1007C0009F908F9008958230910538F0880F991F7F
:1007D000880F991F05970197F1F70895789484B5CC
:1007E000826084BD84B5816084BD85B5826085BD2D
:1007F00085B5816085BDEEE6F0E080818160808313
:10080000E1E8F0E0108280818260808380818160F5
:100810008083E0E8F0E0808181608083E1EBF0E0BC
:10082000808184608083E0EBF0E080818160808360
:10083000EAE7F0E080818460808380818260808349
:100840008081816080838081806880831092C10074
:100850000895833081F028F4813099F08230A9F036
:1008600008958730A9F08830C9F08430B1F48091C0
:1008700080008F7D03C0809180008F7780938000FF
:10088000089584B58F7784BD089584B58F7DFBCF9F
:100890008091B0008F778093B00008958091B00070
:1008A0008F7DF9CFCF93DF9390E0FC01E458FF4FA9
:1008B000249180579F4FFC0184918823C9F090E0D8
:1008C000880F991FFC01E854FF4FA591B491FC01DA
:1008D000E255FF4FC591D49161110DC09FB7F894B7
:1008E0008C91209582238C938881282328839FBF15
:1008F000DF91CF910895623051F49FB7F8943C9105
:10090000822F809583238C93E8812E2BEFCF8FB796
:10091000F894EC912E2B2C938FBFEACF1F93CF939B
:10092000DF93282F30E0F901E859FF4F8491F90156
:10093000E458FF4FD491F901E057FF4FC491CC2305
:10094000A9F0162F81110E942904EC2FF0E0EE0F80
:10095000FF1FE255FF4FA591B4918FB7F894EC912A
:10096000111108C0D095DE23DC938FBFDF91CF91AA
:100970001F910895DE2BF8CFCF93DF93282F30E01F
:10098000F901E859FF4F8491F901E458FF4FD491E0
:10099000F901E057FF4FC491CC23A1F081110E94CF
:1009A0002904EC2FF0E0EE0FFF1FEC55FF4FA5914F
:1009B000B491EC91ED2381E090E009F480E0DF91C7
:1009C000CF91089580E090E0FACFFC01918D228DC7
:1009D000892F90E0805C9F4F821B91098F7399272C
:1009E0000895FC01918D828D981731F0828DE80F6A
:1009F000F11D858D90E008958FEF9FEF0895FC0124
:100A0000918D828D981761F0A28DAE0FBF2FB11D11
:100A10005D968C91928D9F5F9F73928F90E0089569
:100A20008FEF9FEF0895FC01538D448D252F30E00B
:100A3000842F90E0821B930B541710F0CF960895EB
:100A4000019708958BE996E0892B49F080E090E0CA
:100A5000892B29F00E949B0681110C9400000895B7
:100A6000FC01A48DA80FB92FB11DA35ABF4F2C9123
:100A7000848D90E001968F739927848FA689B7891A
:100A80002C93A089B1898C91837080648C93938D11
:100A9000848D981306C00288F389E02D80818F7DB4
:100AA00080830895CF93DF93EC01888D8823B9F07C
:100AB000AA89BB89E889F9898C9185FD03C0808169
:100AC00086FD0DC00FB607FCF7CF8C9185FFF2CFE6
:100AD000808185FFEDCFCE010E943005E9CFDF9107
:100AE000CF910895EF92FF920F931F93CF93DF93CF
:100AF000EC0181E0888F9B8D8C8D98131AC0E8895A
:100B0000F989808185FF15C09FB7F894EE89FF8928
:100B10006083E889F98980818370806480839FBFC6
:100B200081E090E0DF91CF911F910F91FF90EF90C6
:100B30000895F62E0B8D10E00F5F1F4F0F731127D6
:100B4000E02E8C8D8E110CC00FB607FCFACFE88911
:100B5000F989808185FFF5CFCE010E943005F1CF64
:100B6000EB8DEC0FFD2FF11DE35AFF4FF0829FB785
:100B7000F8940B8FEA89FB8980818062CFCFCF9276
:100B8000DF92EF92FF921F93CF93DF93EC016A0104
:100B90007B01122FE889F98982E08083C11481EEFC
:100BA000D806E104F104A1F060E079E08DE390E083
:100BB000A70196010E94FA09215031094109510902
:100BC0005695479537952795211580E1380798F078
:100BD000E889F989108260E874E88EE190E0A70165
:100BE00096010E94FA09215031094109510956958F
:100BF000479537952795EC85FD853083EE85FF85F4
:100C00002083188EEC89FD891083EA89FB89808115
:100C100080618083EA89FB89808188608083EA899A
:100C2000FB89808180688083EA89FB8980818F7D50
:100C30008083DF91CF911F91FF90EF90DF90CF9055
:100C40000895CF93DF93EC01E881F9810680F78165
:100C5000E02D0995EA89FB8980818F7E8083EA896E
:100C6000FB898081877F8083EA89FB8980818F77F8
:100C70008083EA89FB8980818F7D80838A8D898F3B
:100C8000DF91CF9108951F920F920FB60F9211240A
:100C90002F938F939F93EF93FF93E091B601F09181
:100CA000B7018081E091BC01F091BD0182FD1BC0C4
:100CB00090818091BF018F5F8F732091C001821757
:100CC00041F0E091BF01F0E0EA55FE4F958F80932F
:100CD000BF01FF91EF919F918F912F910F900FBEC8
:100CE0000F901F9018958081F4CF1F920F920FB62E
:100CF0000F9211242F933F934F935F936F937F93A2
:100D00008F939F93AF93BF93EF93FF9386EA91E006
:100D10000E943005FF91EF91BF91AF919F918F910C
:100D20007F916F915F914F913F912F910F900FBEE7
:100D30000F901F90189586EA91E00E94E50421E04B
:100D4000892B09F420E0822F089590E080E0089537
:100D500008950895AF92BF92CF92DF92EF92FF92E3
:100D60000F931F93CF93DF936C017B018B01040FD3
:100D7000151FEB015E01AE18BF08C017D10759F06F
:100D80006991D601ED91FC910190F081E02DC601B1
:100D90000995892B79F7C501DF91CF911F910F91AB
:100DA000FF90EF90DF90CF90BF90AF900895FB0140
:100DB00001900020E9F73197AF01461B570BDC018A
:100DC000ED91FC910280F381E02D0994EF92FF9266
:100DD0000F931F93CF93DF938C017B01D0E0C0E092
:100DE000F701EC0FFD1F6491662361F0D801ED91CE
:100DF000FC910190F081E02DC8010995892B11F03B
:100E00002196EECFCE01DF91CF911F910F91FF90F0
:100E1000EF900895DB0114964D915C9115976D91BB
:100E20007C91DC01ED91FC910280F381E02D09942D
:100E30006115710511F00C94D70690E080E00895DB
:100E4000DC01ED91FC910190F081E02D0994DB0132
:100E5000ED91FC9111970190F081E02DBC01CD0145
:100E600009946AE271E00C94D7060F931F93CF9315
:100E7000DF93EC010E94E6068C01CE010E9431074F
:100E8000800F911FDF91CF911F910F9108950F93C4
:100E90001F93CF93DF93EC010E940A078C01CE01D0
:100EA0000E943107800F911FDF91CF911F910F9109
:100EB00008950F931F93CF93DF938C01D0E0C0E090
:100EC0006115710519F00E94D706EC01C8010E9456
:100ED00031078C0F9D1FDF91CF911F910F910895C6
:100EE0000F931F93CF93DF93EC010E9420078C0197
:100EF000CE010E943107800F911FDF91CF911F918A
:100F00000F9108950F931F93CF93DF93EC010E94ED
:100F100027078C01CE010E943107800F911FDF91BE
:100F2000CF911F910F9108958F929F92AF92BF9290
:100F3000EF92FF920F931F93CF93DF93CDB7DEB75E
:100F4000A1970FB6F894DEBF0FBECDBF7C01FA01AA
:100F5000CB0119A2223008F42AE08E010F5D1F4F49
:100F6000822E912CB12CA12CBF01A50194010E94CD
:100F7000FA09F901CA016A300CF5605DD8016E9377
:100F80008D01232B242B252B79F790E080E01097FF
:100F900021F0BD01C7010E94D706A1960FB6F894B3
:100FA000DEBF0FBECDBFDF91CF911F910F91FF909C
:100FB000EF90BF90AF909F908F900895695CDECFC7
:100FC000CF92DF92EF92FF920F931F93CF93DF9315
:100FD0002115310581F4DC01ED91FC910190F08146
:100FE000E02D642FDF91CF911F910F91FF90EF9033
:100FF000DF90CF9009942A30310501F52AE077FF80
:101000001DC06A017B01EC016DE20E9420078C018A
:1010100044275527BA014C195D096E097F092AE05A
:10102000CE010E949407800F911FDF91CF911F91F5
:101030000F91FF90EF90DF90CF900895DF91CF91C7
:101040001F910F91FF90EF90DF90CF900C94940739
:101050009A01AB01770F660B770B0C94E0070F93A7
:101060001F93CF93DF93EC010E9428088C01CE01DF
:101070000E943107800F911FDF91CF911F910F9137
:1010800008950F931F93CF93DF93EC010E94E00725
:101090008C01CE010E943107800F911FDF91CF910B
:1010A0001F910F9108952115310541F4DC01ED9157
:1010B000FC910190F081E02D642F09940C94940729
:1010C0009A01462F50E070E060E00C9453080F93B3
:1010D0001F93CF93DF93EC010E9460088C01CE0137
:1010E0000E943107800F911FDF91CF911F910F91C7
:1010F00008959A01AB0170E060E00C9453080F93DF
:101100001F93CF93DF93EC010E9479088C01CE01ED
:101110000E943107800F911FDF91CF911F910F9196
:1011200008950F931F93CF93DF93EC010E94530810
:101130008C01CE010E943107800F911FDF91CF916A
:101140001F910F9108952F923F924F925F926F924D
:101150007F928F929F92AF92BF92CF92DF92EF9247
:10116000FF921F93CF93DF93EC016A017B01722EF4
:10117000AB019601CB01B6010E948C0C6DE271E0CF
:10118000811126C046015701E894B7F82FEF3FEFD1
:101190004FE75FE7C501B4010E948C0C81110CC0C0
:1011A0002FEF3FEF4FE75FE7C501B4010E94C20A8E
:1011B00061E371E0181664F02FEF3FEF4FE75FE453
:1011C000C701B6010E941A0C1816B4F465E371E069
:1011D000CE01DF91CF911F91FF90EF90DF90CF90E4
:1011E000BF90AF909F908F907F906F905F904F9047
:1011F0003F902F900C94D7062FEF3FEF4FE75FEC17
:10120000C701B6010E94C20A87FDE0CF20E030E0AE
:10121000A901C701B6010E94C20A312C212C87FF07
:1012200009C06DE2CE010E9420071C01F7FAF0947C
:10123000F7F8F09410E060E070E080E09FE3711652
:1012400041F020E030E040E251E40E94C70A1F5F15
:10125000F6CFA70196010E94560A2B013C010E947D
:10126000390B4B015C012AE0BC01A401CE010E94B4
:1012700094077C01E20CF31C1123B1F1C501B40108
:101280000E94680B9B01AC01C301B2010E94550A88
:101290004B015C016EE2CE010E942007E80EF91EB0
:1012A000115010F120E030E040E251E4C501B401FA
:1012B0000E941F0C2B013C010E94390B4B014AE09C
:1012C00050E0CE010E947908E80EF91EB40190E0CA
:1012D00080E00E94680B9B01AC01C301B2010E9437
:1012E000550A4B015C01DCCFC701DF91CF911F9103
:1012F000FF90EF90DF90CF90BF90AF909F908F9036
:101300007F906F905F904F903F902F9008950C9436
:10131000A3080F931F93CF93DF93EC010E94A308C0
:101320008C01CE010E943107800F911FDF91CF9178
:101330001F910F91089508958AE391E00C9417028C
:1013400020E043E062E08AE391E00C94700290E0D8
:1013500080E00895E6EAF1E01382128288EE93E0DD
:10136000A0E0B0E084839583A683B7838CE191E00D
:101370009183808385EC90E09587848784EC90E06E
:101380009787868780EC90E0918B808B81EC90E052
:10139000938B828B82EC90E0958B848B86EC90E033
:1013A000978B868B118E128E138E148E08950E9449
:1013B000EE030E94A8060E949A00C2E2D5E00E94B5
:1013C0008E002097E1F30E942205F9CF97FB072EAC
:1013D00016F4009407D077FD09D00E943B0A07FC61
:1013E00005D03EF4909581959F4F08957095619535
:1013F0007F4F0895A1E21A2EAA1BBB1BFD010DC051
:10140000AA1FBB1FEE1FFF1FA217B307E407F507B4
:1014100020F0A21BB30BE40BF50B661F771F881F90
:10142000991F1A9469F760957095809590959B0126
:10143000AC01BD01CF010895052E97FB1EF4009469
:101440000E94330A57FD07D00E94FA0907FC03D017
:101450004EF40C94330A50954095309521953F4FAA
:101460004F4F5F4F089590958095709561957F4F90
:101470008F4F9F4F0895AA1BBB1B51E107C0AA1FA6
:10148000BB1FA617B70710F0A61BB70B881F991F25
:101490005A95A9F780959095BC01CD010895EE0F5E
:1014A000FF1F0590F491E02D09945058BB27AA27FF
:1014B0000E946D0A0C94E00B0E94D20B38F00E943F
:1014C000D90B20F039F49F3F19F426F40C94CF0B7C
:1014D0000EF4E095E7FB0C94C90BE92F0E94F10B89
:1014E00058F3BA17620773078407950720F079F459
:1014F000A6F50C94130C0EF4E0950B2EBA2FA02D2C
:101500000B01B90190010C01CA01A0011124FF27B0
:10151000591B99F0593F50F4503E68F11A16F040AB
:10152000A22F232F342F4427585FF3CF46953795AA
:101530002795A795F0405395C9F77EF41F16BA0B6F
:10154000620B730B840BBAF09150A1F0FF0FBB1F1D
:10155000661F771F881FC2F70EC0BA0F621F731F66
:10156000841F48F4879577956795B795F7959E3FC3
:1015700008F0B0CF9395880F08F09927EE0F979554
:10158000879508950E94A50B08F481E008950E94B4
:10159000DB0A0C94E00B0E94D90B58F00E94D20B8E
:1015A00040F029F45F3F29F00C94C90B51110C94C1
:1015B000140C0C94CF0B0E94F10B68F39923B1F338
:1015C000552391F3951B550BBB27AA276217730769
:1015D000840738F09F5F5F4F220F331F441FAA1FFD
:1015E000A9F335D00E2E3AF0E0E832D091505040B9
:1015F000E695001CCAF72BD0FE2F29D0660F771F67
:10160000881FBB1F261737074807AB07B0E809F04C
:10161000BB0B802DBF01FF2793585F4F3AF09E3FD1
:10162000510578F00C94C90B0C94140C5F3FE4F353
:10163000983ED4F3869577956795B795F7959F5F14
:10164000C9F7880F911D9695879597F90895E1E060
:10165000660F771F881FBB1F621773078407BA07BF
:1016600020F0621B730B840BBA0BEE1F88F7E0951A
:1016700008950E94F90B88F09F5798F0B92F992789
:10168000B751B0F0E1F0660F771F881F991F1AF06D
:10169000BA95C9F714C0B13091F00E94130CB1E0B3
:1016A00008950C94130C672F782F8827B85F39F0B2
:1016B000B93FCCF3869577956795B395D9F73EF406
:1016C00090958095709561957F4F8F4F9F4F0895AE
:1016D000E89409C097FB3EF49095809570956195CC
:1016E0007F4F8F4F9F4F9923A9F0F92F96E9BB2782
:1016F0009395F695879577956795B795F111F8CFFE
:10170000FAF4BB0F11F460FF1BC06F5F7F4F8F4F68
:101710009F4F16C0882311F096E911C0772321F05E
:101720009EE8872F762F05C0662371F096E8862FF6
:1017300070E060E02AF09A95660F771F881FDAF74D
:10174000880F9695879597F90895990F0008550F7A
:10175000AA0BE0E8FEEF16161706E807F907C0F037
:1017600012161306E407F50798F0621B730B840B3F
:10177000950B39F40A2661F0232B242B252B21F419
:1017800008950A2609F4A140A6958FEF811D811DB9
:10179000089597F99F6780E870E060E008959FEFF3
:1017A00080EC089500240A941616170618060906F8
:1017B000089500240A9412161306140605060895C7
:1017C000092E0394000C11F4882352F0BB0F40F44F
:1017D000BF2B11F460FF04C06F5F7F4F8F4F9F4F8F
:1017E000089557FD9058440F551F59F05F3F71F011
:1017F0004795880F97FB991F61F09F3F79F0879578
:101800000895121613061406551FF2CF4695F1DF00
:1018100008C0161617061806991FF1CF8695710590
:10182000610508940895E894BB2766277727CB01C4
:1018300097F908950E94A50B08F48FEF08950E9470
:10184000320C0C94E00B0E94D20B38F00E94D90BA2
:1018500020F0952311F00C94C90B0C94CF0B11249C
:101860000C94140C0E94F10B70F3959FC1F3950F2B
:1018700050E0551F629FF001729FBB27F00DB11D14
:10188000639FAA27F00DB11DAA1F649F6627B00DA4
:10189000A11D661F829F2227B00DA11D621F739F8D
:1018A000B00DA11D621F839FA00D611D221F749F9B
:1018B0003327A00D611D231F849F600D211D822FE2
:1018C000762F6A2F11249F5750409AF0F1F0882309
:1018D0004AF0EE0FFF1FBB1F661F771F881F915036
:1018E0005040A9F79E3F510580F00C94C90B0C9411
:1018F000140C5F3FE4F3983ED4F386957795679593
:10190000B795F795E7959F5FC1F7FE2B880F911D5F
:101910009695879597F908950E94A50B880B990BCA
:10192000089510E0C3E6D0E004C0FE010E944F0A13
:0C1930002196C436D107C9F7F894FFCF08
:10193C0048656C6C6F0000000000CC00AA06A7097B
:10194C0028014101AB002901000000007205AA0624
:10195C0013055205E504FF04F1040D0A006E616ED7
:0A196C0000696E66006F76660000E9
:00000001FF
