:100000000C94D2000C94FA000C94FA000C94FA00B0
:100010000C94FA000C94FA000C94FA000C94FA0078
:100020000C94FA000C94FA000C94FA000C94FA0068
:100030000C94FA000C94FA000C94FA000C94FA0058
:100040000C9417010C94FA000C946F030C94A10308
:100050000C94FA000C94FA000C94FA000C94FA0038
:100060000C94FA000C94FA004E414E494E495459F2
:10007000494E46CDCCCC3D0AD7233C17B7D1387773
:10008000CC2B329595E6241FB14F0A000020410089
:1000900000C84200401C4620BCBE4CCA1B0E5AAED3
:1000A000C59D7400407A10F35A00A0724E180900E2
:1000B00010A5D4E80000E87648170000E40B5402CD
:1000C0000000CA9A3B000000E1F505000080969808
:1000D00000000040420F000000A086010000001058
:1000E0002700000000E8030000000064000000009A
:1000F000000A00000000000100000000002C76D87B
:1001000088DC674F0823DFC1DFAE59E1B1B796E560
:10011000E3E453C63AE651997696E8E6C28426EBC4
:10012000898C9B62ED407C6FFCEFBC9C9F40F2BAD7
:10013000A56FA5F490055A2AF75C936B6CF9676D6F
:10014000C11BFCE0E40D47FEF520E6B500D0ED90C4
:100150002E0300943577050080841E080000204E91
:100160000A000000C80C333333330F986E1283112A
:1001700041EF8D2114893BE65516CFFEE6DB18D101
:10018000844B381BF77C1D901DA4BBE424203284D3
:10019000725E228100C9F124ECA1E53D27006A10BE
:1001A0007010661011241FBECFEFD8E0DEBFCDBFA8
:1001B00011E0A0E0B1E0E8E0F5E302C005900D92A7
:1001C000A833B107D9F721E0A8E3B1E001C01D923F
:1001D000AB3EB207E1F710E0C1EDD0E004C02197DB
:1001E000FE010E94CF10CF3CD107C9F70E949D109D
:1001F0000C94771A0C94000068E371E087E491E0B6
:100200000E94730468EE73E080E090E00C94920129
:1002100026E040E855E260E070E087E491E00E946B
:10022000EB0262E171E088E391E00C94B9091F925E
:100230000F920FB60F9211242F933F938F939F939A
:10024000AF93BF9380913E0190913F01A0914001F7
:10025000B09141013091460123E0230F2D3758F52D
:100260000196A11DB11D2093460180933E019093FC
:100270003F01A0934001B0934101809142019091D0
:100280004301A0914401B09145010196A11DB11D0A
:100290008093420190934301A0934401B0934501A0
:1002A000BF91AF919F918F913F912F910F900FBE72
:1002B0000F901F90189526E8230F0296A11DB11DDF
:1002C000D2CF2FB7F89460913E0170913F01809199
:1002D0004001909141012FBF08953FB7F89480915C
:1002E000420190914301A0914401B091450126B58E
:1002F000A89B05C02F3F19F00196A11DB11D3FBF5E
:10030000BA2FA92F982F8827BC01CD01620F711D2C
:10031000811D911D42E0660F771F881F991F4A9526
:10032000D1F708958F929F92AF92BF92CF92DF92B2
:10033000EF92FF926B017C010E946D014B015C0109
:10034000C114D104E104F104E9F00E9465100E9497
:100350006D01681979098A099B09683E7340810516
:10036000910570F321E0C21AD108E108F10888EE86
:10037000880E83E0981EA11CB11CC114D104E104B5
:10038000F10429F7FF90EF90DF90CF90BF90AF90EE
:100390009F908F9008958230910538F0880F991FB3
:1003A000880F991F05970197F1F70895789484B500
:1003B000826084BD84B5816084BD85B5826085BD61
:1003C00085B5816085BDEEE6F0E080818160808347
:1003D000E1E8F0E01082808182608083808181602A
:1003E0008083E0E8F0E0808181608083E1EBF0E0F1
:1003F000808184608083E0EBF0E080818160808395
:10040000EAE7F0E08081846080838081826080837D
:100410008081816080838081806880831092C100A8
:100420000895FC01918D228D892F90E0805C9F4F73
:10043000821B91098F7399270895FC01918D828DFC
:10044000981731F0828DE80FF11D858D90E00895A9
:100450008FEF9FEF0895FC01918D828D981761F0C9
:10046000A28DAE0FBF2FB11D5D968C91928D9F5FB7
:100470009F73928F90E008958FEF9FEF0895FC0196
:10048000538D448D252F30E0842F90E0821B930BF9
:10049000541710F0CF9608950197089587EC93E0D4
:1004A000892B49F080E090E0892B29F00E94C70356
:1004B00081110C9400000895FC01A48DA80FB92FA0
:1004C000B11DA35ABF4F2C91848D90E001968F737C
:1004D0009927848FA689B7892C93A089B1898C919B
:1004E000837080648C93938D848D981306C00288EA
:1004F000F389E02D80818F7D80830895CF93DF93F2
:10050000EC01888D8823B9F0AA89BB89E889F9892B
:100510008C9185FD03C0808186FD0DC00FB607FC60
:10052000F7CF8C9185FFF2CF808185FFEDCFCE0193
:100530000E945C02E9CFDF91CF910895EF92FF9284
:100540000F931F93CF93DF93EC0181E0888F9B8DF6
:100550008C8D98131AC0E889F989808185FF15C0B0
:100560009FB7F894EE89FF896083E889F9898081D3
:100570008370806480839FBF81E090E0DF91CF91A2
:100580001F910F91FF90EF900895F62E0B8D10E0C4
:100590000F5F1F4F0F731127E02E8C8D8E110CC033
:1005A0000FB607FCFACFE889F989808185FFF5CF7E
:1005B000CE010E945C02F1CFEB8DEC0FFD2FF11DFF
:1005C000E35AFF4FF0829FB7F8940B8FEA89FB89BB
:1005D00080818062CFCFCF92DF92EF92FF921F9304
:1005E000CF93DF93EC016A017B01122FE889F9892F
:1005F00082E08083C11481EED806E104F104A1F009
:1006000060E079E08DE390E0A70196010E94AD10D3
:10061000215031094109510956954795379527953C
:10062000211580E1380798F0E889F989108260E89F
:1006300074E88EE190E0A70196010E94AD10215070
:100640003109410951095695479537952795EC850C
:10065000FD853083EE85FF852083188EEC89FD892A
:100660001083EA89FB89808180618083EA89FB8924
:10067000808188608083EA89FB89808180688083AB
:10068000EA89FB8980818F7D8083DF91CF911F91E3
:10069000FF90EF90DF90CF900895CF93DF93EC0120
:1006A000E881F9810680F781E02D0995EA89FB89C7
:1006B00080818F7E8083EA89FB898081877F808328
:1006C000EA89FB8980818F778083EA89FB89808131
:1006D0008F7D80838A8D898FDF91CF9108951F92BE
:1006E0000F920FB60F9211242F938F939F93EF9336
:1006F000FF93E0915701F09158018081E0915D01F5
:10070000F0915E0182FD1BC09081809160018F5F3E
:100710008F7320916101821741F0E0916001F0E058
:10072000E95BFE4F958F80936001FF91EF919F9160
:100730008F912F910F900FBE0F901F901895808171
:10074000F4CF1F920F920FB60F9211242F933F9365
:100750004F935F936F937F938F939F93AF93BF93C9
:10076000EF93FF9387E491E00E945C02FF91EF9189
:10077000BF91AF919F918F917F916F915F914F91B9
:100780003F912F910F900FBE0F901F90189587E407
:1007900091E00E94110221E0892B09F420E0822FD0
:1007A000089590E080E0089508950895AF92BF9273
:1007B000CF92DF92EF92FF920F931F93CF93DF932D
:1007C0006C017B018B01040F151FEB015E01AE185C
:1007D000BF08C017D10759F06991D601ED91FC917E
:1007E0000190F081E02DC6010995892B79F7C501AB
:1007F000DF91CF911F910F91FF90EF90DF90CF90FD
:10080000BF90AF900895FB0101900020E9F7319768
:10081000AF01461B570BDC01ED91FC910280F38187
:10082000E02D0994EF92FF920F931F93CF93DF93E4
:100830008C017B01D0E0C0E0F701EC0FFD1F64915B
:10084000662361F0D801ED91FC910190F081E02DDB
:10085000C8010995892B11F02196EECFCE01DF91C9
:10086000CF911F910F91FF90EF900895DB011496A7
:100870004D915C9115976D917C91DC01ED91FC910E
:100880000280F381E02D09946115710511F00C943B
:10089000030490E080E00895DC01ED91FC9101906B
:1008A000F081E02D0994DB01ED91FC91119701900D
:1008B000F081E02DBC01CD01099469E271E00C9456
:1008C00003040F931F93CF93DF93EC010E94120454
:1008D0008C01CE010E945D04800F911FDF91CF91AA
:1008E0001F910F9108950F931F93CF93DF93EC0106
:1008F0000E9436048C01CE010E945D04800F911F7E
:10090000DF91CF911F910F9108950F931F93CF9374
:10091000DF938C01D0E0C0E06115710519F00E94F1
:100920000304EC01C8010E945D048C0F9D1FDF9140
:10093000CF911F910F9108950F931F93CF93DF9342
:10094000EC010E944C048C01CE010E945D04800FDA
:10095000911FDF91CF911F910F9108950F931F93D6
:10096000CF93DF93EC010E9453048C01CE010E94CF
:100970005D04800F911FDF91CF911F910F9108951A
:100980008F929F92AF92BF92EF92FF920F931F931D
:10099000CF93DF93CDB7DEB7A1970FB6F894DEBF44
:1009A0000FBECDBF7C01FA01CB0119A2223008F4A1
:1009B0002AE08E010F5D1F4F822E912CB12CA12CAD
:1009C000BF01A50194010E94AD10F901CA016A306E
:1009D0000CF5605DD8016E938D01232B242B252B04
:1009E00079F790E080E0109721F0BD01C7010E94E7
:1009F0000304A1960FB6F894DEBF0FBECDBFDF9102
:100A0000CF911F910F91FF90EF90BF90AF909F906B
:100A10008F900895695CDECFCF92DF92EF92FF92C4
:100A20000F931F93CF93DF932115310581F4DC01E0
:100A3000ED91FC910190F081E02D642FDF91CF9139
:100A40001F910F91FF90EF90DF90CF9009942A3083
:100A5000310501F52AE077FF1DC06A017B01EC0139
:100A60006DE20E944C048C0144275527BA014C19B1
:100A70005D096E097F092AE0CE010E94C004800F43
:100A8000911FDF91CF911F910F91FF90EF90DF9019
:100A9000CF900895DF91CF911F910F91FF90EF902C
:100AA000DF90CF900C94C0049A01AB01770F660BD6
:100AB000770B0C940C050F931F93CF93DF93EC01EE
:100AC0000E9454058C01CE010E945D04800F911F8D
:100AD000DF91CF911F910F9108950F931F93CF93A3
:100AE000DF93EC010E940C058C01CE010E945D0495
:100AF000800F911FDF91CF911F910F9108952115C4
:100B0000310541F4DC01ED91FC910190F081E02D83
:100B1000642F09940C94C0049A01462F50E070E0B1
:100B200060E00C947F050F931F93CF93DF93EC014C
:100B30000E948C058C01CE010E945D04800F911FE4
:100B4000DF91CF911F910F9108959A01AB0170E051
:100B500060E00C947F050F931F93CF93DF93EC011C
:100B60000E94A5058C01CE010E945D04800F911F9B
:100B7000DF91CF911F910F9108950F931F93CF9302
:100B8000DF93EC010E947F058C01CE010E945D0481
:100B9000800F911FDF91CF911F910F9108952F9298
:100BA0003F924F925F926F927F928F929F92AF92FD
:100BB000BF92CF92DF92EF92FF921F93CF93DF937A
:100BC000EC016A017B01722EAB019601CB01B601EB
:100BD0000E940C136CE271E0811126C0460157019E
:100BE000E894B7F82FEF3FEF4FE75FE7C501B40197
:100BF0000E940C1381110CC02FEF3FEF4FE75FE70E
:100C0000C501B4010E94421160E371E0181664F05E
:100C10002FEF3FEF4FE75FE4C701B6010E949A1242
:100C20001816B4F464E371E0CE01DF91CF911F9107
:100C3000FF90EF90DF90CF90BF90AF909F908F90FC
:100C40007F906F905F904F903F902F900C94030493
:100C50002FEF3FEF4FE75FECC701B6010E94421153
:100C600087FDE0CF20E030E0A901C701B6010E9476
:100C70004211312C212C87FF09C06DE2CE010E9468
:100C80004C041C01F7FAF094F7F8F09410E060E0DF
:100C900070E080E09FE3711641F020E030E040E238
:100CA00051E40E9447111F5FF6CFA70196010E94F1
:100CB000D6102B013C010E94B9114B015C012AE0C6
:100CC000BC01A401CE010E94C0047C01E20CF31C13
:100CD0001123B1F1C501B4010E94E8119B01AC01DF
:100CE000C301B2010E94D5104B015C016EE2CE013E
:100CF0000E944C04E80EF91E115010F120E030E083
:100D000040E251E4C501B4010E949F122B013C0155
:100D10000E94B9114B014AE050E0CE010E94A505A6
:100D2000E80EF91EB40190E080E00E94E8119B01FA
:100D3000AC01C301B2010E94D5104B015C01DCCFB4
:100D4000C701DF91CF911F91FF90EF90DF90CF907F
:100D5000BF90AF909F908F907F906F905F904F90DB
:100D60003F902F9008950C94CF050F931F93CF932E
:100D7000DF93EC010E94CF058C01CE010E945D043F
:100D8000800F911FDF91CF911F910F910895FC016A
:100D9000808191810C94CB13CF93DF93EC018881F8
:100DA0009981009711F00E94CB13198218821D823D
:100DB0001C821B821A82DF91CF9108950F931F939B
:100DC000CF93DF93EC018B016F5F7F4F8881998117
:100DD0000E945414009751F0998388831B830A83DF
:100DE00081E0DF91CF911F910F91089580E0F9CFBD
:100DF000CF93DF93EC0188819981892B49F08A8117
:100E00009B818617970720F081E0DF91CF910895AD
:100E1000CE010E94DE068823C1F38C819D81892B3F
:100E200099F7E881F9811082EFCFEF92FF920F934B
:100E30001F93CF93DF93EC017B018A01BA010E94DB
:100E4000F80681110BC0CE010E94CC06CE01DF91C5
:100E5000CF911F910F91FF90EF9008951D830C8308
:100E6000B701888199810E949415F0CFFC0111820D
:100E7000108213821282158214826115710551F05D
:100E8000FB0101900020E9F73197AF01461B570B9A
:100E90000C9415070895FB0101900020E9F73197A4
:100EA000AF01461B570B0C941507CF93DF9300D06F
:100EB000CDB7DEB7FC011182108213821282158237
:100EC000148269831A82BE016F5F7F4F0E944B07B5
:100ED0000F900F90DF91CF9108950F931F93CF93B1
:100EE000DF93CDB7DEB729970FB6F894DEBF0FBEFC
:100EF000CDBF8C01862FF8011182108213821282DD
:100F00001582148250E0BE016F5F7F4F90E00E9417
:100F10004F16BE016F5F7F4FC8010E944B07299695
:100F20000FB6F894DEBF0FBECDBFDF91CF911F91FA
:100F30000F9108950F931F93CF93DF93CDB7DEB733
:100F400062970FB6F894DEBF0FBECDBF8C01CB0108
:100F5000F80111821082138212821582148250E0ED
:100F6000BE016F5F7F4F0E94DD15BE016F5F7F4F37
:100F7000C8010E944B0762960FB6F894DEBF0FBE01
:100F8000CDBFDF91CF911F910F9108950F931F93C4
:100F9000CF93DF93CDB7DEB761970FB6F894DEBF7E
:100FA0000FBECDBF8C01CB01F801118210821382DC
:100FB00012821582148250E0BE016F5F7F4F0E9443
:100FC0004F16BE016F5F7F4FC8010E944B076196AD
:100FD0000FB6F894DEBF0FBECDBFDF91CF911F914A
:100FE0000F9108950F931F93CF93DF93CDB7DEB783
:100FF000A2970FB6F894DEBF0FBECDBF8C01CB0118
:10100000BA01F801118210821382128215821482B1
:1010100030E0AE014F5F5F4F0E94F315BE016F5F7E
:101020007F4FC8010E944B07A2960FB6F894DEBF0F
:101030000FBECDBFDF91CF911F910F9108950F93F8
:101040001F93CF93DF93CDB7DEB7A1970FB6F89478
:10105000DEBF0FBECDBF8C01CB01BA01F8011182FA
:101060001082138212821582148230E0AE014F5F2B
:101070005F4F0E942216BE016F5F7F4FC8010E9422
:101080004B07A1960FB6F894DEBF0FBECDBFDF9120
:10109000CF911F910F910895EF92FF920F931F939D
:1010A000CF93DF93EC017B018A01BA010E94F8061D
:1010B00081110BC0CE010E94CC06CE01DF91CF91F1
:1010C0001F910F91FF90EF9008951D830C83B7013E
:1010D000888199810E945515F0CF0F931F93CF936C
:1010E000DF938C01EB01FC0180819181009701F17C
:1010F0006881798161157105C9F02CEA30E1232BF3
:10110000A9F0428153812C813D814217530770F031
:101110000E9494158C819D81F801958384831D82A2
:101120001C82DF91CF911F910F9108950E94CB13E4
:1011300088819981F801918380838A819B8193833F
:1011400082838C819D8195838483198218821B827E
:101150001A82E5CFFC01118210821382128215825D
:1011600014820C946D08FC01118210821382128289
:10117000158214820C946D08CF93DF93EC01FB0170
:101180008617970749F0608171816115710541F0FB
:10119000448155810E941507CE01DF91CF910895BA
:1011A0000E94CC06F9CFFC011182108213821282B8
:1011B000158214820C94BC08CF93DF93EC01861740
:1011C000970711F00E946D08CE01DF91CF9108952D
:1011D000CF93DF93EC016817790711F00E946D0837
:1011E000CE01DF91CF910895CF93DF93EC0161158C
:1011F000710531F00E944B07CE01DF91CF91089528
:101200000E94CC06F9CFEF92FF920F931F93CF93DA
:10121000DF93CDB7DEB7A1970FB6F894DEBF0FBE50
:10122000CDBF7C01CB01BA01F7011182108213827C
:1012300012821582148242E0420F8E010F5F1F4F0F
:101240000E941113BC01C7010E94F408A1960FB6B9
:10125000F894DEBF0FBECDBFDF91CF911F910F91EC
:10126000FF90EF900895EF92FF920F931F93CF930B
:10127000DF93CDB7DEB7A1970FB6F894DEBF0FBEF0
:10128000CDBF7C01CB01BA01F7011182108213821C
:1012900012821582148242E0420F8E010F5F1F4FAF
:1012A0000E941113BC01C7010E94F408A1960FB659
:1012B000F894DEBF0FBECDBFDF91CF911F910F918C
:1012C000FF90EF9008950F931F93CF93DF93EC015E
:1012D0008B016115710571F0CB010E945C15AC01A9
:1012E000B801CE010E944C08CE01DF91CF911F9131
:1012F0000F9108950E94CC06F7CFFC011182108255
:1013000013821282158214820C946309EF92FF9269
:101310000F931F93CF93DF936115710541F480E024
:10132000DF91CF911F910F91FF90EF90089541159C
:101330005105B1F07B01EC010C811D81040F151FDB
:10134000B8010E94F806882351F3288139818C81E5
:101350009D81B701820F931F0E9494151D830C83FA
:1013600081E0DECFFB0144815581608171810C9465
:1013700086096115710551F0FB0101900020E9F724
:101380003197AF01461B570B0C94860980E00895F6
:10139000CF93DF9300D0CDB7DEB769831A8241E0E7
:1013A00050E0BE016F5F7F4F0E9486090F900F9043
:1013B000DF91CF910895EF92FF920F931F93CF93F8
:1013C000DF9300D000D0CDB7DEB77C01862F4AE096
:1013D0008E010F5F1F4FB80190E00E94E815F801E1
:1013E00001900020E9F73197AF01401B510BB80184
:1013F000C7010E9486090F900F900F900F90DF9108
:10140000CF911F910F91FF90EF900895EF92FF926F
:101410000F931F93CF93DF93CDB7DEB728970FB607
:10142000F894DEBF0FBECDBF7C01CB014AE08E0138
:101430000F5F1F4FB8010E94E815F80101900020CE
:10144000E9F73197AF01401B510BB801C7010E946A
:10145000860928960FB6F894DEBF0FBECDBFDF9188
:10146000CF911F910F91FF90EF900895EF92FF920F
:101470000F931F93CF93DF9300D000D000D01F9223
:10148000CDB7DEB77C01CB014AE08E010F5F1F4F65
:10149000B8010E945A16F80101900020E9F731972F
:1014A000AF01401B510BB801C7010E948609279666
:1014B0000FB6F894DEBF0FBECDBFDF91CF911F9165
:1014C0000F91FF90EF900895EF92FF920F931F936B
:1014D000CF93DF93CDB7DEB72E970FB6F894DEBF6C
:1014E0000FBECDBF7C01CB01BA012AE08E010F5F98
:1014F0001F4FA8010E94FE15F80101900020E9F796
:101500003197AF01401B510BB801C7010E948609FA
:101510002E960FB6F894DEBF0FBECDBFDF91CF91F0
:101520001F910F91FF90EF900895EF92FF920F930C
:101530001F93CF93DF93CDB7DEB72D970FB6F894F7
:10154000DEBF0FBECDBF7C01CB01BA012AE08E0108
:101550000F5F1F4FA8010E942D16F8010190002077
:10156000E9F73197AF01401B510BB801C7010E9449
:1015700086092D960FB6F894DEBF0FBECDBFDF9162
:10158000CF911F910F91FF90EF900895EF92FF92EE
:101590000F931F93CF93DF93CDB7DEB764970FB64A
:1015A000F894DEBF0FBECDBF7C01CB01BA018E0126
:1015B0000F5F1F4F22E044E00E941113FC010190D5
:1015C0000020E9F73197AF01481B590BBC01C70157
:1015D0000E94860964960FB6F894DEBF0FBECDBF99
:1015E000DF91CF911F910F91FF90EF900895EF92AF
:1015F000FF920F931F93CF93DF93CDB7DEB764971E
:101600000FB6F894DEBF0FBECDBF7C01CB01BA018F
:101610008E010F5F1F4F22E044E00E941113FC0176
:1016200001900020E9F73197AF01481B590BBC012D
:10163000C7010E94860964960FB6F894DEBF0FBEFC
:10164000CDBFDF91CF911F910F91FF90EF90089543
:10165000EF92FF920F931F93CF93DF936115710564
:1016600041F480E0DF91CF911F910F91FF90EF90B7
:1016700008957B01EC01CB010E945C150097A9F055
:101680000C811D81080F191FB801CE010E94F806B8
:10169000882339F3288139818C819D81B701820F9C
:1016A000931F0E9455151D830C8381E0DBCFCF93E0
:1016B000DF93EC01FB0144815581608171810E94BF
:1016C0008609811103C0CE010E94CC06CE01DF91B4
:1016D000CF910895CF93DF93EC016115710539F433
:1016E000CE010E94CC06CE01DF91CF910895FB017F
:1016F00001900020E9F73197AF01461B570B0E947C
:101700008609882369F3EFCFCF93DF93EC010E9422
:10171000C809811103C0CE010E94CC06CE01DF9121
:10172000CF910895CF93DF93EC010E94DB098111E3
:1017300003C0CE010E94CC06CE01DF91CF91089567
:10174000CF93DF93EC010E94060A811103C0CE0102
:101750000E94CC06CE01DF91CF910895CF93DF9305
:10176000EC010E94360A811103C0CE010E94CC0612
:10177000CE01DF91CF910895CF93DF93EC010E94CA
:10178000640A811103C0CE010E94CC06CE01DF9114
:10179000CF910895CF93DF93EC010E94950A8111B8
:1017A00003C0CE010E94CC06CE01DF91CF910895F7
:1017B000CF93DF93EC010E94C60A811103C0CE01D2
:1017C0000E94CC06CE01DF91CF910895CF93DF9395
:1017D000EC010E94F70A811103C0CE010E94CC06E1
:1017E000CE01DF91CF910895CF93DF93EC010E945A
:1017F000280B811103C0CE010E94CC06CE01DF91DF
:10180000CF910895CF93DF93EC01A881B981EB01CB
:10181000E881F9811097F1F03097B1F4EC018C81F7
:101820009D81892BC9F08C9190E00BC0DB0114964F
:101830008D919C91892B81F0808190E0919581958B
:101840009109DF91CF910895BF01CD01DF91CF9133
:101850000C948B15309751F790E080E0F2CFFC01AB
:1018600044815581FB01248135814217530729F4B6
:101870000E94020C21E0892B09F020E0822F0895BC
:10188000FC0124813581232B31F421E0FB01672BFE
:1018900049F4822F0895808191816115710539F491
:1018A00021E0FC0180818823A1F320E0F2CF0E9497
:1018B0008B1521E0892B69F3F8CF0E94020C892F48
:1018C000881F8827881F08950E94020C21E018169F
:1018D00019060CF020E0822F08950E94020C21E0EE
:1018E000181619060CF420E0822F08950E94020CAD
:1018F000892F8095881F8827881F0895EF92FF926F
:101900000F931F93CF93DF938617970769F1FC011D
:1019100024813581FB014481558124173507E1F489
:10192000232B11F1FC0100811181FB01C081D181C8
:10193000F80181918F018823B9F0082E000C990BD2
:101940000E9445157C018991082E000C990B0E947C
:101950004515E816F90661F380E0DF91CF911F91FC
:101960000F91FF90EF90089581E0F7CFDB0114967F
:10197000ED91FC91DC0114962D913C9115972E1B55
:101980003F0B24173507A0F02D913C91211531050F
:1019900079F0DB016D917C916115710549F0CA0107
:1019A000AF01820F931F0E949B1521E0892B09F044
:1019B00020E0822F0895FC0144815581FB012481A0
:1019C00035814217530720F050E040E00C94B60CEC
:1019D00080E00895FC0124813581FB01448155811B
:1019E00024173507A0F0FC0180819181009779F0E0
:1019F000FB01608171816115710549F0241B350B74
:101A0000820F931F0E948B1521E0892B09F020E0A3
:101A1000822F0895DC0114962D913C911597621741
:101A2000730728F4ED91FC91E60FF71F40830895AA
:101A3000FC01248135816217730720F48081918134
:101A4000009729F41092E40184EE91E00895860F46
:101A5000971F0895FC01248135816217730748F4AC
:101A600080819181009729F0860F971FFC0180816A
:101A7000089580E008950C942A0D0F931F93CF933F
:101A8000DF934115510559F06115710541F0FC01D5
:101A9000048115812017310738F0FB011082DF9196
:101AA000CF911F910F91089541505109021B130BC3
:101AB0004017510708F48A01EB01FC016081718134
:101AC000620F731FA801CE010E94A915C00FD11F7C
:101AD0001882E5CFCF93DF93FC0124813581421733
:101AE000530788F4C081D181062E000C770BCE01FC
:101AF000840F951F0E948015009729F08C1B9D0B69
:101B0000DF91CF9108958FEF9FEFFACF50E040E043
:101B10000C946A0DCF93DF93FC0124813581421729
:101B2000530788F4C081D181FB0160817181CE01AE
:101B3000840F951F0E94C315009729F08C1B9D0BE5
:101B4000DF91CF9108958FEF9FEFFACF50E040E003
:101B50000C948A0DDF92EF92FF920F931F93CF9315
:101B6000DF93DC0114962D913C914217530750F0FE
:101B70008FEF9FEFDF91CF911F910F91FF90EF902B
:101B8000DF9008958C01EA012196DC01ED91FC9132
:101B90001197EC0FFD1FD0801082ED90FC90062E67
:101BA000000C770BC7010E94B815CE0DDF1DD8823F
:101BB0000097F1F2F80120813181821B930BDACF7B
:101BC000FC0144815581415051090C94AA0DAF92FA
:101BD000BF92CF92DF92EF92FF920F931F93CF931A
:101BE000DF936B01EA01FB014481558141155105E9
:101BF00061F1FC01248135812115310531F1241772
:101C0000350718F1C217D30710F0E9012197FC013D
:101C100000811181C801AA24AA94BB24BA94780136
:101C2000EC0EFD1EE816F906A0F0F6016081718148
:101C30000E94C315009769F09C01201B310BC2174D
:101C4000D30708F059010196EDCFAA24AA94BB242A
:101C5000BA94C501DF91CF911F910F91FF90EF9042
:101C6000DF90CF90BF90AF900895FC0144815581E3
:101C7000FB0124813581421B530B0C94E70DAF927D
:101C8000BF92CF92DF92EF92FF920F931F93CF9369
:101C9000DF935C016B017A0189012417350720F479
:101CA0008F2D7901042F182F6BE271E0C5010E947E
:101CB0003607D6011496CD91DC91EC16FD06C8F4DA
:101CC0000C171D0708F4E801D601ED91FC9111975E
:101CD000EC0FFD1F108110826D917C916E0D7F1DA8
:101CE000C5010E94F408F60180819181C80FD91FB7
:101CF0001883C501DF91CF911F910F91FF90EF9055
:101D0000DF90CF90BF90AF900895DC01ED91FC91F2
:101D1000309749F08191882331F08613FBCFDF01A2
:101D200011974C93F7CF08952F923F924F925F9265
:101D30006F927F928F929F92AF92BF92CF92DF92DB
:101D4000EF92FF920F931F93CF93DF93FC01448098
:101D500055804114510409F4CFC0FB0164807580A3
:101D60006114710409F4C8C07A016B018C01FA0195
:101D7000A480B580A618B708FC01C081D181A11448
:101D8000B104B9F4F60160817181CE010E94C315DE
:101D9000EC01009709F4B0C0F701608171814481C2
:101DA00055810E946515F70184819581C80FD91F5F
:101DB000E9CFB7FC11C0FB01208031804201B101A5
:101DC000CE010E94C315009709F44AC0EC01C60D6C
:101DD000D71D8A0C9B1CF3CF3E01F60160817181F7
:101DE000CE010E94C3152C01009721F14C018C1AE1
:101DF0009D0AA401BE01C3010E946515680C791CEF
:101E0000F7016081718144815581C3010E9465158C
:101E1000F70184809580680C791CF601C481D58116
:101E2000C40DD51DF801848195818A0D9B1D958374
:101E30008483D3CFBE01C301DF91CF911F910F9156
:101E4000FF90EF90DF90CF90BF90AF909F908F90DA
:101E50007F906F905F904F903F902F900C949415CF
:101E60004814590409F448C0F80182819381881507
:101E70009905E0F1F801448155814150510957FD20
:101E80003BC0B601C8010E94E70DEC0197FD34C0CC
:101E9000F60124813581280F391FF8018081918155
:101EA000820F931F44815581421B530BBC018A0D45
:101EB0009B1D0E946E15F801848195818A0D9B1DE2
:101EC0009583848320813181820F931FFC011082CE
:101ED000F80180819181F701608171814481558190
:101EE0008C0F9D1F0E946515AE01C7CFB401C801BC
:101EF0000E94DE068111BECFDF91CF911F910F911D
:101F0000FF90EF90DF90CF90BF90AF909F908F9019
:101F10007F906F905F904F903F902F900895CF9358
:101F2000DF93DC011496ED91FC916E177F0728F585
:101F30004115510511F19F01261B370B421753071D
:101F400008F49A01DB01EC0188819981E21BF30B13
:101F5000FD83EC83AF01461B570B260F371FBC01D7
:101F6000620F731F8A0F9B1F0E94A915E881F981D8
:101F70008C819D81E80FF91F1082DF91CF91089528
:101F80004FEF5FEF0C948F0FCF93DF93FC01C08175
:101F9000D181209761F08991882349F0082E000CA7
:101FA000990B0E944515FE0131978083F4CFDF9194
:101FB000CF910895CF93DF93FC01C081D181209709
:101FC00061F08991882349F0082E000C990B0E943A
:101FD0004D15FE0131978083F4CFDF91CF910895A5
:101FE000AF92BF92CF92DF92EF92FF920F931F9327
:101FF000CF93DF93DC01CD90DC901197C114D10415
:1020000039F01496CD91DC918C017601209761F422
:10201000DF91CF911F910F91FF90EF90DF90CF90C4
:10202000BF90AF90089575015701BFEFAB1ABB0A7F
:10203000F7018081082E000C990B0E943C15892B1A
:1020400091F72197CC0DDD1D8881082E000C990B8E
:102050000E943C15892B29F0CE15DF0510F0219741
:10206000F3CFAE014F5F5F4F4E195F09D801159650
:102070005C934E931497CE14DF0420F4B701C6018D
:102080000E946515D801ED91FC91119714968D91E0
:102090009C91E80FF91F1082BBCFFC0180819181D8
:1020A000009711F00C94151560E070E0CB010895D5
:1020B000FC0180819181009711F00C94111560E072
:1020C00070E0CB0108950C945810089588E391E0D6
:1020D0000C94C70666E071E088E391E00C94360743
:1020E000E7E4F1E01382128288EE93E0A0E0B0E032
:1020F00084839583A683B7838BE191E0918380836A
:1021000085EC90E09587848784EC90E097878687BC
:1021100080EC90E0918B808B81EC90E0938B828BB4
:1021200082EC90E0958B848B86EC90E0978B868B8D
:10213000118E128E138E148E08950E94D6010E9465
:10214000D4030E940801CEE4D2E00E94FC00209754
:10215000E1F30E944E02F9CF0895A1E21A2EAA1BC4
:10216000BB1BFD010DC0AA1FBB1FEE1FFF1FA21747
:10217000B307E407F50720F0A21BB30BE40BF50B44
:10218000661F771F881F991F1A9469F760957095CD
:10219000809590959B01AC01BD01CF010895EE0F94
:1021A000FF1F0590F491E02D09945058BB27AA27F2
:1021B0000E94ED100C9460120E94521238F00E949E
:1021C000591220F039F49F3F19F426F40C944F1261
:1021D0000EF4E095E7FB0C944912E92F0E9471126E
:1021E00058F3BA17620773078407950720F079F44C
:1021F000A6F50C9493120EF4E0950B2EBA2FA02D99
:102200000B01B90190010C01CA01A0011124FF27A3
:10221000591B99F0593F50F4503E68F11A16F0409E
:10222000A22F232F342F4427585FF3CF469537959D
:102230002795A795F0405395C9F77EF41F16BA0B62
:10224000620B730B840BBAF09150A1F0FF0FBB1F10
:10225000661F771F881FC2F70EC0BA0F621F731F59
:10226000841F48F4879577956795B795F7959E3FB6
:1022700008F0B0CF9395880F08F09927EE0F979547
:10228000879508950E94251208F481E008950E9420
:102290005B110C9460120E94591258F00E94521265
:1022A00040F029F45F3F29F00C94491251110C942D
:1022B00094120C944F120E94711268F39923B1F397
:1022C000552391F3951B550BBB27AA27621773075C
:1022D000840738F09F5F5F4F220F331F441FAA1FF0
:1022E000A9F335D00E2E3AF0E0E832D091505040AC
:1022F000E695001CCAF72BD0FE2F29D0660F771F5A
:10230000881FBB1F261737074807AB07B0E809F03F
:10231000BB0B802DBF01FF2793585F4F3AF09E3FC4
:10232000510578F00C9449120C9494125F3FE4F339
:10233000983ED4F3869577956795B795F7959F5F07
:10234000C9F7880F911D9695879597F90895E1E053
:10235000660F771F881FBB1F621773078407BA07B2
:1023600020F0621B730B840BBA0BEE1F88F7E0950D
:1023700008950E94791288F09F5798F0B92F9927F5
:10238000B751B0F0E1F0660F771F881F991F1AF060
:10239000BA95C9F714C0B13091F00E949312B1E020
:1023A00008950C949312672F782F8827B85F39F01F
:1023B000B93FCCF3869577956795B395D9F73EF4F9
:1023C00090958095709561957F4F8F4F9F4F0895A1
:1023D000E89409C097FB3EF49095809570956195BF
:1023E0007F4F8F4F9F4F9923A9F0F92F96E9BB2775
:1023F0009395F695879577956795B795F111F8CFF1
:10240000FAF4BB0F11F460FF1BC06F5F7F4F8F4F5B
:102410009F4F16C0882311F096E911C0772321F051
:102420009EE8872F762F05C0662371F096E8862FE9
:1024300070E060E02AF09A95660F771F881FDAF740
:10244000880F9695879597F90895990F0008550F6D
:10245000AA0BE0E8FEEF16161706E807F907C0F02A
:1024600012161306E407F50798F0621B730B840B32
:10247000950B39F40A2661F0232B242B252B21F40C
:1024800008950A2609F4A140A6958FEF811D811DAC
:10249000089597F99F6780E870E060E008959FEFE6
:1024A00080EC089500240A941616170618060906EB
:1024B000089500240A9412161306140605060895BA
:1024C000092E0394000C11F4882352F0BB0F40F442
:1024D000BF2B11F460FF04C06F5F7F4F8F4F9F4F82
:1024E000089557FD9058440F551F59F05F3F71F004
:1024F0004795880F97FB991F61F09F3F79F087956B
:102500000895121613061406551FF2CF4695F1DFF3
:1025100008C0161617061806991FF1CF8695710583
:10252000610508940895E894BB2766277727CB01B7
:1025300097F908950E94251208F48FEF08950E94DC
:10254000B2120C9460120E94521238F00E9459127A
:1025500020F0952311F00C9449120C944F12112481
:102560000C9494120E94711270F3959FC1F3950F11
:1025700050E0551F629FF001729FBB27F00DB11D07
:10258000639FAA27F00DB11DAA1F649F6627B00D97
:10259000A11D661F829F2227B00DA11D621F739F80
:1025A000B00DA11D621F839FA00D611D221F749F8E
:1025B0003327A00D611D231F849F600D211D822FD5
:1025C000762F6A2F11249F5750409AF0F1F08823FC
:1025D0004AF0EE0FFF1FBB1F661F771F881F915029
:1025E0005040A9F79E3F510580F00C9449120C947D
:1025F00094125F3FE4F3983ED4F386957795679500
:10260000B795F795E7959F5FC1F7FE2B880F911D52
:102610009695879597F908950E942512880B990B36
:102620000895EF920F931F93CF93DF93E80134E067
:1026300047FD34E1042E000C550B57FF03C05195A4
:1026400041955109E32E022F242FAE010E947416EA
:10265000CE01DF91CF911F910F91EF9008950F93CD
:102660001F93CF93DF938230910510F482E090E0C6
:10267000E091E701F091E80130E020E0B0E0A0E077
:10268000309799F42115310509F44AC0281B390BFC
:1026900024303105D8F58A819B816115710589F156
:1026A000FB0193838283FE0111C04081518102812D
:1026B000138148175907E0F04817590799F4109704
:1026C00061F012960C93129713961C933296CF01D9
:1026D000DF91CF911F910F9108950093E70110931F
:1026E000E801F4CF2115310551F04217530738F0B6
:1026F000A901DB019A01BD01DF01F801C1CFEF01A2
:10270000F9CF9093E8018093E701CDCFFE01E20F6E
:10271000F31F819391932250310939832883D7CFB6
:102720002091E5013091E601232B41F42091020133
:10273000309103013093E6012093E50120910001DF
:10274000309101012115310541F42DB73EB740917B
:10275000040150910501241B350BE091E501F09136
:10276000E601E217F307A0F42E1B3F0B28173907E9
:1027700078F0AC014E5F5F4F2417350748F04E0FDD
:102780005F1F5093E6014093E501819391939FCFA2
:10279000F0E0E0E09CCFCF93DF930097E9F0FC01FD
:1027A000329713821282A091E701B091E801ED0106
:1027B00030E020E01097A1F420813181820F931F37
:1027C0002091E5013091E6012817390709F061C031
:1027D000F093E601E093E501DF91CF910895EA01DE
:1027E000CE17DF07E8F54A815B819E01411551054F
:1027F000B1F7E901FB83EA8349915991C40FD51FD1
:10280000EC17FD0761F4808191810296840F951F7A
:10281000E90199838883828193819B838A83F0E095
:10282000E0E012968D919C9113970097B9F52D9148
:102830003C911197CD010296820F931F2091E501E3
:102840003091E6012817390739F6309751F5109283
:10285000E8011092E701B093E601A093E501BCCF37
:10286000D383C28340815181840F951FC817D90734
:1028700061F44E5F5F4F88819981480F591F5183E2
:1028800040838A819B81938382832115310509F0DE
:10289000B0CFF093E801E093E7019ECFFD01DC01AA
:1028A000C0CF13821282D7CFB0E0A0E0EAE5F4E116
:1028B0000C94331A8C01009751F4CB010E942F1312
:1028C0008C01C801CDB7DEB7E0E10C944F1AFC01D2
:1028D000E60FF71F9C0122503109E217F30708F4B5
:1028E0009DC0D901CD91DC911197C617D70798F0FB
:1028F000C530D10530F3CE0104978617970708F34A
:10290000C61BD70B2297C193D1936D937C93CF01B4
:102910000E94CB13D6CF5B01AC1ABD0A4C018C0EC2
:102920009D1EA091E701B091E801512C412CF12CA2
:10293000E12C109731F58091E5019091E601881521
:10294000990509F05CC04616570608F058C08091FA
:10295000000190910101009741F48DB79EB740911D
:10296000040150910501841B950BE817F90708F045
:1029700055C0F093E601E093E501F90171836083AE
:10298000A0CF8D919C91119712966C9012971396EF
:102990007C901397A815B90559F56C0142E0C40E57
:1029A000D11CCA14DB0420F1AC014A195B09DA011D
:1029B0001296159780F06282738251834083D90109
:1029C0006D937C93E114F10471F0D7011396FC939D
:1029D000EE93129776CF22968C0F9D1FF90191836B
:1029E0008083F301EFCFF093E801E093E70169CF33
:1029F0004816590608F42C017D01D3019ACFCB016A
:102A00000E942F137C01009749F0AE01B8010E948B
:102A10006515C8010E94CB13870153CF10E000E079
:102A200050CF662777270C94D3171F93FC01992763
:102A30008827BC01E89411911032E9F3193010F0A5
:102A40001E30C8F31B3251F01D3249F4689406C0A1
:102A50000E940D16610F711D811D911D1191105362
:102A60001A30B0F33EF490958095709561957F4F44
:102A70008F4F9F4F1F91089591110C94FB19803235
:102A800019F089508550C8F708959111089581541F
:102A90008A5108F4805E855A0895911108958156EF
:102AA0008A5108F4805285580895FB01DC01059095
:102AB0000D920020E1F70895FC0105900020E9F750
:102AC000809590958E0F9F1F0895FB01DC0102C039
:102AD00001900D9241505040D8F70895681779073A
:102AE00068F4FB01DC01E40FF51FA40FB51F02C061
:102AF00002900E9241505040D8F708950C946515FD
:102B0000FC018191861721F08823D9F79927089530
:102B10003197CF010895FB01DC018D91019080195F
:102B20000110D9F3990B0895FB01DC0101900D927E
:102B30000020E1F70895FB01DC014150504030F0E6
:102B40008D910190801919F40020B9F7881B990B19
:102B50000895FB01DC014150504048F001900D9276
:102B60000020C9F701C01D9241505040E0F7089580
:102B7000FC0181E090E00190061609F4CF010020ED
:102B8000D1F701970895FB0151915523A9F0BF0199
:102B9000DC014D9145174111E1F759F4CD01019048
:102BA000002049F04D9140154111C9F3FB0141113D
:102BB000EFCF81E090E0019708954532510520F470
:102BC000423010F00C94E815FB011082CB010895FF
:102BD000BB274A3031F4992322F4BDE290958195C8
:102BE0009F4F0C945B162532310520F4223010F0F3
:102BF0000C94FE15FA011082CA010895BB272A30F1
:102C000051F4992342F4BDE29095809570956195B9
:102C10007F4F8F4F9F4F0C942E16592F482F372FD1
:102C2000262F660F771F881F991F660F771F881F33
:102C3000991F620F731F841F951F660F771F881FD0
:102C4000991F08952532310520F4223010F00C949C
:102C50002D16FA011082CA010895BB27FA01A62F8A
:102C60006217710581059105330B30FB66F0AA27C9
:102C7000660F771F881F991FAA1FA21710F0A21BAB
:102C800063953850A9F7A05DAA3308F0A95DA19318
:102C900036F7B111B1931082CA010C94161A45325D
:102CA000510520F4423010F00C945A16FB011082AA
:102CB000CB010895BB27FB015527AA27880F991F31
:102CC000AA1FA41710F0A41B83955051B9F7A05D5B
:102CD000AA3308F0A95DA193009779F7B111B193D8
:102CE0001192CB010C94161AA9E0B0E0EAE7F6E1E4
:102CF0000C94371A6A01F22EB02E102FFBE3AF2E80
:102D0000A01608F41BE31F5F012F27E0AE014F5F01
:102D10005F4F0E942319BC018981982F99709130CF
:102D200009F43FC09BE2E1FC04C09E2D9170E0FCE1
:102D30003AC05E2D5071E82FE87083FF46C084E0F2
:102D4000911101C083E0EF2DE81B8F1508F0E0E042
:102D5000D6018E2F20E2552351F1992329F0D60177
:102D60009C93C60101966C0196012D5F3F4FE2FED8
:102D700024C08EE4D6018C9391E411969C93119714
:102D800012968C93D9018E2F90E281111BC0E20F15
:102D9000F32FF11D10828EEF9FEF2996ECE00C943B
:102DA000531A9DE2C6CF90E2C4CF2D93815081117A
:102DB000FCCFCE0ED11CE0E0D0CF8EE6D6018C93B6
:102DC00091E6DBCF9D938150E0CF482F447082FF86
:102DD0003DC084E0911101C083E08F1510F4EF2D08
:102DE000E81BD6018E2F20E2552309F1992329F003
:102DF000D6019C93C60101966C0196012D5F3F4F51
:102E0000E2FE1BC089E4D6018C938EE411968C936C
:102E1000119786E412968C93D9018E2F90E2882325
:102E200009F4B5CF9D938150FACF2D938150811134
:102E3000FCCFCE0ED11CE0E0D9CF89E6D6018C9331
:102E40008EE611968C93119786E6E4CF9B0177FF6F
:102E500002C030E020E0A1E0B0E0911102C0B0E09B
:102E6000A0E0F9013196AE0FBF1F8B2C912CBB2037
:102E700009F461C05401EFEFAE1ABE0AAA0DBB1DE2
:102E8000FA161B0619F014F04F2D4A1B511188C079
:102E9000E3FC59C07601A42FB0E2A1114FC0C40ECB
:102EA000D11C992309F45BC040E0D6011196F601CC
:102EB00090836D01552309F448C0012F060F9A81B4
:102EC000582F507184FF03C0913309F4015010163C
:102ED0000CF047C0093008F008E0EEE2FE2E5B017E
:102EE000A01AB10885019194819491082F3F32076F
:102EF00029F4D601FC92F60131966F01621773072F
:102F000094F1021713077CF5DB01A21BB30BAA2473
:102F1000A394B12CAC0EBD1EAA0DBB1D11968C91B5
:102F200021503109D601119628153905F4F0F60122
:102F300080836D01DBCFB12CA12CA0CFF701B19321
:102F40007F01A150AACF9111B0CFD601942F50E3A9
:102F500002C05D9391509111FCCFC40ED11C40E092
:102F6000ACCF01E0BACF80E3DBCF6217730731F457
:102F7000963388F4953311F4552369F0F601808374
:102F8000FD01842F90E2811108C0A40FB11D1C9295
:102F900090E080E002CF81E3F1CF91938150F3CFB5
:102FA000911183CF8ACFB0E0A0E0E9EDF7E10C9476
:102FB000371A5C017B016115710519F0DB018D93F6
:102FC0009C9385010F5F1F4FF501D0818D2F90E0FD
:102FD0000E943C156C01892BB9F5DD32B9F50F5F04
:102FE0001F4FD5011196DC91C1E05801F1E0AF1AF5
:102FF000B10843E050E060E770E0C5010E94FE19AF
:10300000892B69F5680182E0C80ED11C45E050E0CB
:103010006BE670E0C6010E94FE19892B21F468015D
:1030200097E0C90ED11CE114F10419F0D701CD923B
:10303000DC9260E070E080E89FEFC111FFC060E0CB
:1030400070E080E89FE7FAC05801BBCFDB3229F47B
:1030500085010E5F1F4FF501D181C0E0C6CF43E06F
:1030600050E068E670E0C5010E94FE19892BE9F086
:10307000F80110E000E020E030E0A9015F01B0EDD0
:103080008B2E8D0E89E08815C8F19C2E689491F8DE
:103090008C2F8870C2FF16C0811102C00F5F1F4FB6
:1030A0003196D501DC91C92DE9CFE114F10429F065
:1030B0000E5F1F4FF7011183008360E070E080EC2A
:1030C0009FE7BCC0882311F001501109A5E0B0E0D2
:1030D0000E94261A9B01AC01220F331F441F551F6B
:1030E000280D311D411D511D283999E9390749071E
:1030F00099E15907A8F2C6609C2ED2CFAEEF8A1292
:1031000006C0C3FD3CC09C2E689493F8C9CFDF7DF8
:10311000D534A9F580818D3239F4C061DF01129672
:10312000818162E070E006C0DF018B32C1F311964D
:1031300061E070E080535D01A61AB70A8A30F8F4A6
:10314000E0E8CE16ECE0DE065CF4B601660F771F11
:10315000660F771FC60ED71ECC0CDD1CC80ED11C07
:103160005D01FFEFAF1ABF0A8C9180538A30A8F13E
:10317000C4FF03C0D194C194D1080C0D1D1DC1FF23
:1031800009C0E114F10431F081E0A81AB108D701B7
:10319000AD92BC92CA01B9010E94E811C370C3305C
:1031A00009F490584B015C0120E030E0A9010E9435
:1031B0004211882309F440C0CFE9D0E017FF05C0D1
:1031C000119501951109C7E8D0E06E01B8E1CB1A5D
:1031D000D10880E2E82EF12C0FC0D501B1CFFE015D
:1031E00025913591459154910E191F09C501B401DE
:1031F0000E949F124B015C01D501C4010E151F05F1
:1032000074F72497F594E794CC16DD06A9F78A2F76
:10321000880F8B2F881F8F3F49F020E030E0A901F5
:10322000C501B4010E944211811106C082E290E002
:103230009093EA018093E901C501B401CDB7DEB7EF
:10324000ECE00C94531A283008F027E03327DA0119
:10325000990F311D87FD916000966105710539F464
:1032600032602E5F3D9330E32A95E1F708959F3F4A
:1032700030F080387105610509F03C5F3C5F3D939B
:10328000913008F08068911DDF93CF931F930F93C7
:10329000FF92EF92192F987F9695E92F9695969524
:1032A000E90FFF27E350FF4F99273327EE24FF2430
:1032B000A701E70105900894079428F4360FE71E4C
:1032C000F81E491F511D660F771F881F991F06940E
:1032D000A1F70590079428F4E70EF81E491F561F22
:1032E000C11D770F881F991F661F0694A1F70590CF
:1032F000079428F4F80E491F561FC71FD11D880FC9
:10330000991F661F771F0694A1F70590079420F474
:10331000490F561FC71FD81F990F661F771F881F99
:103320000694A9F784911095177041F0D695C7952A
:1033300057954795F794E7941A95C1F7E3EAF0E0BB
:1033400068941590159135916591959105907FE25E
:103350007395E118F10A430B560BC90BD009C0F75E
:10336000E10CF11E431F561FC91FD01D7EF47033A0
:1033700011F48A95E6CFE894015030F0080F0AF472
:103380000027021708F4202F2395022F7A3328F004
:1033900079E37D932A95E9F710C07D932A9589F604
:1033A000069497956795379517951794E118F10A44
:1033B000430B560BC90BD00998F023957E9173955A
:1033C0007A3308F070E37C932013B8F77E91706134
:1033D0007D9330F0839571E37D9370E32A95E1F757
:1033E0001124EF90FF900F911F91CF91DF919927BA
:1033F00087FD90950895992788270895FB01DC01A2
:103400004150504088F08D9181341CF08B350CF484
:10341000805E659161341CF06B350CF4605E861B38
:10342000611171F3990B0895881BFCCFDC01FC013D
:10343000672F71917723E1F7329704C07C916D93E8
:1034400070836291AE17BF07C8F308950E94681A8F
:10345000A59F900DB49F900DA49F800D911D1124E8
:1034600008952F923F924F925F926F927F928F9228
:103470009F92AF92BF92CF92DF92EF92FF920F9303
:103480001F93CF93DF93CDB7DEB7CA1BDB0B0FB60D
:10349000F894DEBF0FBECDBF09942A8839884888CA
:1034A0005F846E847D848C849B84AA84B984C88460
:1034B000DF80EE80FD800C811B81AA81B981CE0F57
:1034C000D11D0FB6F894DEBF0FBECDBFED0108953C
:1034D000A29FB001B39FC001A39F700D811D112455
:1034E000911DB29F700D811D1124911D089510E052
:1034F000C1EDD0E004C0FE010E94CF102196C23D74
:08350000D107C9F7F894FFCFD1
:103508000000EB01800048656C6C6F20576F726C8F
:1035180064002044756300000000009E02D6033F4B
:10352800027E0211022B021D020D0A006E616E005E
:08353800696E66006F76660003
:00000001FF
