:100000000C9465000C948D000C948D000C940F03DF
:100010000C940F030C940F030C948D000C948D0022
:100020000C948D000C948D000C948D000C948D001C
:100030000C948D000C948D000C948D000C948D000C
:100040000C946E080C948D000C94820B0C94B40BE1
:100050000C948D000C948D000C948D000C948D00EC
:100060000C944E070C948D00000000080002010063
:100070000003040700000000000000000102040863
:100080001020408001020408102001020408102002
:10009000040404040404040402020202020203032E
:1000A00003030303000000002300260029000000D2
:1000B0000000250028002B0000000000240027007D
:1000C0002A00DF0EFF0E100FDB0E11241FBECFEF34
:1000D000D8E0DEBFCDBF11E0A0E0B1E0E8E0F4E29F
:1000E00002C005900D92A439B107D9F723E0A4E925
:1000F000B1E001C01D92A938B207E1F710E0C4E6F3
:10010000D0E004C02197FE010E94B50FC136D1078F
:10011000C9F70E943D0F0C94F7110C94000068EE93
:1001200073E080E090E00C94E9089F92AF92BF9258
:10013000CF92DF92EF92FF920F931F93CF93DF93B3
:10014000CDB7DEB7C954D1090FB6F894DEBF0FBEE4
:10015000CDBF26E040E855E260E070E08CEE92E032
:100160000E94FE0A68EE73E080E090E00E94E908D9
:100170008091BA019091BB01009739F026E040E0F0
:1001800051EE60E070E00E94FE0A8091B80190910B
:10019000B901009731F040E051EE60E070E00E945C
:1001A000140465E070E080E090E00E94E90880912E
:1001B0009A0190919B0120919C0130919D0143E116
:1001C0004A873B872C879D878E878091B6019091C7
:1001D000B701DC01ED91FC910190F081E02D6FEE13
:1001E00009958091B6019091B701DC01ED91FC91E8
:1001F0000190F081E02D61E009958091B601909128
:10020000B701DC01ED91FC910190F081E02D6FEFE1
:1002100009958091B6019091B701DC01ED91FC91B7
:100220000190F081E02D6FEF09958091B6019091DA
:10023000B701DC01ED91FC910190F081E02D6FEFB1
:1002400009958091B6019091B701DC01ED91FC9187
:100250000190F081E02D6FEF09958091B6019091AA
:10026000B701DC01ED91FC910190F081E02D61E09E
:1002700009958091B6019091B701DC01ED91FC9157
:100280000190F081E02D60E009958091B601909198
:10029000B701DC01ED91FC910190F081E02D67E068
:1002A00009956E01BAE0CB0ED11C26E0F22E08E0D3
:1002B00010E08091B6019091B701DC01ED91FC91C5
:1002C0000190F081E02DFA94FF2041F0D601ED90ED
:1002D0006D016E2D09950E0D111DEBCF612F099546
:1002E0008091B6019091B701DC01ED91FC910190F4
:1002F000F081E02D602F099585E0C82ED12C99243E
:100300009394EE24E3949FEEF92EB12CA12C10E0EF
:1003100000E08091B6019091B701DC01ED91FC9174
:100320000084F185E02D0995892B89F461E070E066
:1003300080E090E00E94E908BFEFAB1ABB0A88EEAC
:10034000A81683E0B80628F360E071E046C080910B
:10035000B6019091B701DC01ED91FC910284F38527
:10036000E02D09950930110520F5F801E654FE4FFE
:100370000C94B50FC701CD01C401C401C401C4016F
:10038000C301D401D701982E0F5F1F4FC2CF8F3EFC
:1003900009F0BFCFF82EE12CF7CFE82AB1E0EB1639
:1003A000BFEEFB0689F3D0CFD82EC12CEDCFC82AE3
:1003B000EBCFE1E0F0E0EC0FFD1FE00FF11F8083D9
:1003C000C8010897C816D906F9F687E09812BCCF7D
:1003D0008A8563E271E08111B7CF8CEE92E00E94D2
:1003E000980C8FE192E00E946B0568E670E08FE167
:1003F00092E00E9497058FE192E00E941706882301
:1004000039F06DE371E08CEE92E00E94980CFFCF22
:10041000C75BDF4F0FB6F894DEBF0FBECDBFDF91D5
:10042000CF911F910F91FF90EF90DF90CF90BF90F1
:10043000AF909F90089520911D0230911E022817C1
:100440003907B9F49091DB018091DC01981789F0AC
:10045000E091DB01F0E0E352FE4F80812091DB016F
:1004600030E02F5F3F4F2F7333272093DB0190E065
:1004700008958FEF9FEF0895EF92FF920F931F93D0
:10048000CF93DF93DC015C96ED90FC905D97E114D7
:10049000F10479F481E090E013969C938E93129787
:1004A00090E080E0DF91CF911F910F91FF90EF904E
:1004B00008955196ED91FC91529750968C915097DA
:1004C000982F90950FB75E962C915E97122F127011
:1004D00021FD6095F8942081112319F1282B2083A8
:1004E000E7012197F1F728E0462F50E0308160FFC7
:1004F0001AC0382B3083E7012197F1F7BA017595BF
:100500006795215089F7112381F0808189238083A9
:100510000FBF5C968D919C910197F1F781E090E07F
:10052000C1CF2923DCCF3923E5CF9081892BEFCFB1
:10053000089520911D0230911E022817390771F489
:100540009091DB018091DC01981741F0E091DB0193
:10055000F0E0E352FE4F808190E008958FEF9FEF2F
:10056000089520911D0230911E022817390771F459
:100570008091DC012091DB0190E0805C9F4F821B29
:10058000910960E470E00E944C0F089590E080E0D3
:100590000895E0911D02F0911E02E817F90769F431
:1005A000A389B4899C918589809589238C93109225
:1005B0001E0210921D0281E0089580E00895CF93FD
:1005C000DF93EC018A8D9B8D892B01F180911D02B7
:1005D00090911E028C179D07C9F0009711F00E94A0
:1005E000C9028E8D8E7F8E8F1092DC011092DB01FE
:1005F000D0931E02C0931D02EB89FC8980819D89E6
:10060000892B808381E0DF91CF91089580E0FBCF3B
:10061000FC01A685B7859C918585892308951F9245
:100620000F920FB60F9211242F933F934F935F9326
:100630006F937F938F939F93AF93BF93EF93FF93AA
:10064000E0911D02F0911E02309749F0A685B78512
:100650008585968D91FF14C09C918923A1F4FF910B
:10066000EF91BF91AF919F918F917F916F915F912A
:100670004F913F912F910F900FBE0F901F901895A3
:100680009C91892361F7A389B4899C918589809580
:1006900089238C93868997890197F1F7608D718DF5
:1006A000A685B785558538E020E0CB010197F1F7A5
:1006B000822F90E095958795282F4C91452309F03E
:1006C0002068315091F7868D81FD20958091DC0165
:1006D00090E001968F7399273091DB01381799F0DC
:1006E000A091DC01B0E0A352BE4F2C938093DC01BB
:1006F000828D938D0197F1F7A389B4898C919589A7
:10070000892B8C93ACCF868D8160868FF1CF23E5CA
:1007100031E0FC01318320830C94C9021F93CF93F5
:10072000DF93EC01162F6E8D6695617081E068276E
:10073000812F0E94CD0961E0812F0E949109812FB4
:1007400090E0FC01E458FF4FE491E88BFC01E05796
:10075000FF4FE491F0E0EE0FFF1FE255FF4F859150
:1007600094919A8B898BDF91CF911F9108951F935C
:10077000CF93DF93EC01162F60E0812F0E94910947
:100780008E8D81FD04C061E0812F0E94CD091C8700
:10079000812F90E0FC01E458FF4FE491ED87FC01CC
:1007A000E057FF4FE491F0E0EE0FFF1FEC55FF4FD5
:1007B000859194919F878E87DF91CF911F910895A6
:1007C0001F93CF93DF93EC01162F1B821A8288EEC2
:1007D00093E0A0E0B0E08C839D83AE83BF8383E58C
:1007E00091E0998388831F8A1E8A198E188E1B8E2A
:1007F0001A8E1D8E1C8E8E8D8E7F20FB81F98E8F22
:10080000642FCE010E948E03612FCE01DF91CF9124
:100810001F910C94B7036817790718F4861B970B80
:10082000089581E090E00895CF93DF93EC019A0161
:10083000AB011B8E1A8E198E188E1F8A1E8A60E0DD
:1008400079E08DE390E00E94820FF901C9010397DE
:100850002430310510F481E090E09D8F8C8F6C8501
:10086000663108F052C0C90196958795843191058B
:1008700008F450C043979F8B8E8BC901059736971C
:1008800010F481E090E0998F888FC901880F991F3B
:10089000280F391F36952795369527952D30310528
:1008A000E0F12C5031093B8F2A8F9091680084E051
:1008B000683048F021E06E3008F420E081E001C0AB
:1008C000880F2A95EAF7892B809368009C852DE68E
:1008D00030E0983050F02BE630E09E3030F02CE6DF
:1008E00030E0963110F030E020E03C8B2B8B292F4C
:1008F00030E09830A8F481E001C0880F9A95EAF7BB
:100900008D8B8C8D9D8D0197F1F7CE01DF91CF916D
:100910000C94DF0281E090E0AECF21E030E0C3CF65
:100920009E3040F42850310981E001C0880F2A959B
:10093000EAF7E6CF2E503109F7CF0C94C902809127
:10094000530290915402891B990B0895909154027F
:10095000809153022FEF3FEF981748F4E92FF0E012
:10096000EB5AFD4F208130E09F5F90935402C90104
:100970000895E091540280915302E81730F4F0E0BA
:10098000EB5AFD4F808190E008958FEF9FEF08951F
:100990000895CF93DF93EC01E0912B02F0912C02AC
:1009A0003097F1F090915402809153029817C0F063
:1009B00090E0292F30E02617370754F4DE01A20F0C
:1009C000B31F4C912B5A3D4FD9014C939F5FF1CFF0
:1009D0001092540260935302CB01DF91CF9109949E
:1009E000DF91CF910895E0912D02F0912E02309782
:1009F00029F0109231021092300209940895CF9399
:100A0000DF931F92CDB7DEB7698320912F02222397
:100A1000F9F020913002203258F021E030E0FC0162
:100A20003383228390E080E00F90DF91CF9108958F
:100A300080913102E82FF0E0EE5CFD4F99819083C8
:100A40008F5F809331028093300281E090E0ECCFA1
:100A500061E0CE0101960E940507F7CFCF92DF92A9
:100A6000EF92FF920F931F93CF93DF937C01CB0103
:100A70008A0120912F02222389F0EB016B01C40E21
:100A8000D51ECC15DD0569F06991D701ED91FC917A
:100A90000190F081E02DC7010995F3CF642F0E94EA
:100AA0000507C801DF91CF911F910F91FF90EF9043
:100AB000DF90CF900895FC011382128288EE93E0BC
:100AC000A0E0B0E084839583A683B78385E691E0B8
:100AD00091838083089510925402109253021092D1
:100AE0003102109230020E94240683EF94E00E94AB
:100AF000310789EC94E00C942C07CF93C62F0E9409
:100B00006B058C2FCF910C944F060C947D050C94A3
:100B10004206CB01BA010C94530681E080932F0268
:100B200060935202109231021092300208950C9498
:100B30008D050F93062F21E04091300262E372E0B1
:100B4000809152020E94AE06109231021092300241
:100B500010922F020F9108954F925F926F927F92A1
:100B6000AF92BF92CF92EF92FF920F931F93CF93CA
:100B7000DF935C01F62ED42F28013901EE2019F104
:100B80000E948D05CE2DC43008F0C3E0C150B8F0EE
:100B900028E0C29FC0011124A301920104C0569510
:100BA0004795379527958A95D2F7B901D501ED91EB
:100BB000FC910190F081E02DC5010995E7CF60E03F
:100BC000C5010E9499054D2FD13208F040E22C2D2D
:100BD00065E572E08F2D0E946606109254028093A4
:100BE0005302DF91CF911F910F91FF90EF90CF9023
:100BF000BF90AF907F906F905F904F900895CF928D
:100C0000EF920F931F93C22EE12C00E010E09801A9
:100C10000E94AC051F910F91EF90CF90089521E0B5
:100C20000C94FF0521E00C94FF050C94FF0561E096
:100C30000C94990570932C0260932B020895709385
:100C40002E0260932D0208951092E20281E08093BB
:100C5000E0021092DF0261E082E10E94CD0961E0D2
:100C600083E10E94CD09E9EBF0E080818E7F8083F3
:100C700080818D7F808388E48093B80085E48093B1
:100C8000BC000895ECEBF0E080818A7B808360E01B
:100C900082E10E94CD0960E083E10C94CD09880FC8
:100CA0008093BA0008959B01AC0160E074E284EF88
:100CB00090E00E94600F2051310941095109569579
:100CC0004795379527952093B8000895413208F04D
:100CD00043C09091E2029111FCCF91E09093E20227
:100CE0002093E0022FEF209375021092BA02240F96
:100CF0002093B9029093E1029091E102880F892B31
:100D00008093E1028091DF02813009F51092DF02C9
:100D10008091E1028093BB008091BC0083FDF8CFFD
:100D200085EC8093BC008091E2028130E1F38091F8
:100D3000BA02841710F44091BA02ABEBB2E0962FDE
:100D4000FB018E2F891B841720F0842F089585EED8
:100D5000E8CF8D918193F5CF40E0F7CF0F934132EB
:100D600008F04BC09091E2029111FCCF92E0909379
:100D7000E2020093E0029FEF909375021092BA0294
:100D80004093B902362FABEBB2E0FB019E2F931BD1
:100D9000941770F11092E1029091E102880F892B73
:100DA0008093E1028091DF02813029F51092DF0209
:100DB0008091E1028093BB008091BC0083FDF8CF5D
:100DC00085EC8093BC00222321F08091E2028230E6
:100DD000D1F3809175028F3F91F08091750280323E
:100DE00081F080917502803371F084E00F91089555
:100DF00091919D93CBCF85EEE4CF81E0F7CF80E05A
:100E0000F5CF82E0F3CF83E0F1CF20919702260F58
:100E10003327331F21323105ECF42091E202FC012B
:100E200090E080E0243069F082E00895A09197027C
:100E30002191AC0147565D4FA40FB52FB11D2C93E6
:100E40000196861798F380919702680F6093970236
:100E500080E0089581E008959093DC028093DB02A6
:100E600008959093DE028093DD020895882321F097
:100E700085EC8093BC00089585E8FBCF85ED8093D9
:100E8000BC008091BC0084FDFCCF1092E20208956A
:100E900085EC8093BC001092E20208951F920F929D
:100EA0000FB60F9211242F933F934F935F936F933D
:100EB0007F938F939F93AF93BF93EF93FF93809113
:100EC000B900887F803609F44CC008F03FC08832F2
:100ED00009F4A8C018F5803109F49CC0B8F488233F
:100EE00009F4F9C0883009F495C0FF91EF91BF91E2
:100EF000AF919F918F917F916F915F914F913F91B2
:100F00002F910F900FBE0F901F901895883109F404
:100F100089C0803251F78093750215C0803409F47E
:100F20009EC048F48033B9F38833F9F68093750294
:100F30000E944807DACF803509F485C0883509F466
:100F400096C0883491F60E943E07CFCF883909F4C5
:100F50008CC038F5883729F050F4883611F0803786
:100F600021F683E08093E2021092760257C088381F
:100F700009F47BC0803919F0803809F0B6CF809130
:100F80007602803208F071C0E091760281E08E0F27
:100F9000809376028091BB00F0E0E958FD4F80839A
:100FA0003DC0803B39F0E0F4803A09F479C0883ADA
:100FB00009F09BCF84E08093E20210929802109295
:100FC0009702E091DD02F091DE020995809197028F
:100FD00081110FC081E0809397021092990209C09D
:100FE000803C09F476C0883C09F473C0883B09F062
:100FF0007CCFE091980281E08E0F80939802F0E020
:10100000E756FD4F80818093BB00909198028091BC
:10101000970229C08091E1028093BB0085EC809308
:10102000BC0063CF9091BA028091B902981758F52D
:10103000E091BA0281E08E0F8093BA02F0E0E554AD
:10104000FD4F8081E9CFE091BA0281E08E0F80935D
:10105000BA028091BB00F0E0E554FD4F808390918F
:10106000BA028091B9029817C8F285E8D8CFE0910A
:10107000BA0281E08E0F8093BA028091BB00F0E04B
:10108000E554FD4F80838091E00281115CCF81E0C7
:101090008093DF0284EA8093BC001092E20225CFA5
:1010A0000E94480780917602803230F4E091760207
:1010B000F0E0E958FD4F10826091760270E0E09117
:1010C000DB02F091DC0287E792E00995109276024C
:1010D0000CCF85ECE0CF1092750235CF1F920F92A6
:1010E0000FB60F9211242F933F938F939F93AF933B
:1010F000BF938091E3029091E402A091E502B09148
:10110000E6023091EB0223E0230F2D3758F50196CC
:10111000A11DB11D2093EB028093E3029093E402A2
:10112000A093E502B093E6028091E7029091E80275
:10113000A091E902B091EA020196A11DB11D809330
:10114000E7029093E802A093E902B093EA02BF910C
:10115000AF919F918F913F912F910F900FBE0F9064
:101160001F90189526E8230F0296A11DB11DD2CF1E
:101170002FB7F8946091E3027091E4028091E50248
:101180009091E6022FBF08953FB7F8948091E7024F
:101190009091E802A091E902B091EA0226B5A89BDD
:1011A00005C02F3F19F00196A11DB11D3FBFBA2FF9
:1011B000A92F982F8827BC01CD01620F711D811DB9
:1011C000911D42E0660F771F881F991F4A95D1F73E
:1011D00008958F929F92AF92BF92CF92DF92EF923B
:1011E000FF926B017C010E94C4084B015C01C11499
:1011F000D104E104F104E9F00E94DA0E0E94C4086F
:10120000681979098A099B09683E7340810591052F
:1012100070F321E0C21AD108E108F10888EE880EC7
:1012200083E0981EA11CB11CC114D104E104F10497
:1012300029F7FF90EF90DF90CF90BF90AF909F90F5
:101240008F9008958230910538F0880F991F880F8C
:10125000991F05970197F1F70895789484B58260F6
:1012600084BD84B5816084BD85B5826085BD85B54A
:10127000816085BDEEE6F0E0808181608083E1E8F9
:10128000F0E0108280818260808380818160808331
:10129000E0E8F0E0808181608083E1EBF0E0808134
:1012A00084608083E0EBF0E0808181608083EAE706
:1012B000F0E080818460808380818260808380818F
:1012C000816080838081806880831092C10008954E
:1012D000833081F028F4813099F08230A9F00895AC
:1012E0008730A9F08830C9F08430B1F48091800053
:1012F0008F7D03C0809180008F7780938000089558
:1013000084B58F7784BD089584B58F7DFBCF8091A0
:10131000B0008F778093B00008958091B0008F7DEA
:10132000F9CFCF93DF9390E0FC01E458FF4F249175
:1013300080579F4FFC0184918823C9F090E0880F6B
:10134000991FFC01E854FF4FA591B491FC01E255AF
:10135000FF4FC591D49161110DC09FB7F8948C9146
:10136000209582238C938881282328839FBFDF9137
:10137000CF910895623051F49FB7F8943C91822F39
:10138000809583238C93E8812E2BEFCF8FB7F89431
:10139000EC912E2B2C938FBFEACF1F93CF93DF932B
:1013A000282F30E0F901E859FF4F8491F901E45802
:1013B000FF4FD491F901E057FF4FC491CC23A9F01E
:1013C000162F81110E946809EC2FF0E0EE0FFF1F2D
:1013D000E255FF4FA591B4918FB7F894EC9111119C
:1013E00008C0D095DE23DC938FBFDF91CF911F9192
:1013F0000895DE2BF8CFCF93DF93282F30E0F9014B
:10140000E859FF4F8491F901E458FF4FD491F90155
:10141000E057FF4FC491CC23A1F081110E946809CD
:10142000EC2FF0E0EE0FFF1FEC55FF4FA591B491AC
:10143000EC91ED2381E090E009F480E0DF91CF9121
:10144000089580E090E0FACFFC01918D228D892FE4
:1014500090E0805C9F4F821B91098F7399270895BC
:10146000FC01918D828D981731F0828DE80FF11D6E
:10147000858D90E008958FEF9FEF0895FC01918D89
:10148000828D981761F0A28DAE0FBF2FB11D5D96B2
:101490008C91928D9F5F9F73928F90E008958FEF54
:1014A0009FEF0895FC01538D448D252F30E0842F4C
:1014B00090E0821B930B541710F0CF96089501977C
:1014C00008958AED9BE0892B49F080E090E0892B1C
:1014D00029F00E94DA0B81110C9400000895FC01A0
:1014E000A48DA80FB92FB11DA35ABF4F2C91848D85
:1014F00090E001968F739927848FA689B7892C93E2
:10150000A089B1898C91837080648C93938D848D34
:10151000981306C00288F389E02D80818F7D808337
:101520000895CF93DF93EC01888D8823B9F0AA89C1
:10153000BB89E889F9898C9185FD03C0808186FD8E
:101540000DC00FB607FCF7CF8C9185FFF2CF8081DD
:1015500085FFEDCFCE010E946F0AE9CFDF91CF91D9
:101560000895EF92FF920F931F93CF93DF93EC01B7
:1015700081E0888F9B8D8C8D98131AC0E889F9893A
:10158000808185FF15C09FB7F894EE89FF8960833D
:10159000E889F98980818370806480839FBF81E0BE
:1015A00090E0DF91CF911F910F91FF90EF90089500
:1015B000F62E0B8D10E00F5F1F4F0F731127E02EDB
:1015C0008C8D8E110CC00FB607FCFACFE889F98913
:1015D000808185FFF5CFCE010E946F0AF1CFEB8DA0
:1015E000EC0FFD2FF11DE35AFF4FF0829FB7F894E7
:1015F0000B8FEA89FB8980818062CFCFCF92DF9207
:10160000EF92FF921F93CF93DF93EC016A017B016E
:10161000122FE889F98982E08083C11481EED8060F
:10162000E104F104A1F060E079E08DE390E0A7012E
:1016300096010E94600F21503109410951095695C8
:10164000479537952795211580E1380798F0E88967
:10165000F989108260E874E88EE190E0A7019601B4
:101660000E94600F21503109410951095695479553
:1016700037952795EC85FD853083EE85FF852083A2
:10168000188EEC89FD891083EA89FB89808180614D
:101690008083EA89FB89808188608083EA89FB896D
:1016A000808180688083EA89FB8980818F7D808347
:1016B000DF91CF911F91FF90EF90DF90CF90089531
:1016C000CF93DF93EC01E881F9810680F781E02D6B
:1016D0000995EA89FB8980818F7E8083EA89FB896D
:1016E0008081877F8083EA89FB8980818F778083EF
:1016F000EA89FB8980818F7D80838A8D898FDF9144
:10170000CF9108951F920F920FB60F9211242F932D
:101710008F939F93EF93FF93E091FC02F091FD0272
:101720008081E0910203F091030382FD1BC0908150
:10173000809105038F5F8F7320910603821741F01C
:10174000E0910503F0E0E451FD4F958F8093050390
:10175000FF91EF919F918F912F910F900FBE0F905E
:101760001F9018958081F4CF1F920F920FB60F92A1
:1017700011242F933F934F935F936F937F938F9396
:101780009F93AF93BF93EF93FF938CEE92E00E94F1
:101790006F0AFF91EF91BF91AF919F918F917F91D0
:1017A0006F915F914F913F912F910F900FBE0F90CE
:1017B0001F9018958CEE92E00E94240A21E0892B5C
:1017C00009F420E0822F089590E080E008950895C4
:1017D0000895AF92BF92CF92DF92EF92FF920F9354
:1017E0001F93CF93DF936C017B018B01040F151FB7
:1017F000EB015E01AE18BF08C017D10759F069911F
:10180000D601ED91FC910190F081E02DC601099582
:10181000892B79F7C501DF91CF911F910F91FF902F
:10182000EF90DF90CF90BF90AF900895FB010190B3
:101830000020E9F73197AF01461B570BDC01ED9112
:10184000FC910280F381E02D0994EF92FF920F93B7
:101850001F93CF93DF938C017B01D0E0C0E0F701B1
:10186000EC0FFD1F6491662361F0D801ED91FC91AE
:101870000190F081E02DC8010995892B11F0219686
:10188000EECFCE01DF91CF911F910F91FF90EF909E
:101890000895DB0114964D915C9115976D917C91A3
:1018A000DC01ED91FC910280F381E02D099461153A
:1018B000710511F00C94160C90E080E00895DC01A5
:1018C000ED91FC910190F081E02D0994DB01ED9107
:1018D000FC9111970190F081E02DBC01CD0109949C
:1018E00065E871E00C94160C0F931F93CF93DF9370
:1018F000EC010E94250C8C01CE010E94700C800F1F
:10190000911FDF91CF911F910F9108950F931F9316
:10191000CF93DF93EC010E94490C8C01CE010E9411
:10192000700C800F911FDF91CF911F910F9108953F
:101930000F931F93CF93DF938C01D0E0C0E061152C
:10194000710519F00E94160CEC01C8010E94700C80
:101950008C0F9D1FDF91CF911F910F9108950F93D1
:101960001F93CF93DF93EC010E945F0C8C01CE019B
:101970000E94700C800F911FDF91CF911F910F91EA
:1019800008950F931F93CF93DF93EC010E94660C91
:101990008C01CE010E94700C800F911FDF91CF91BE
:1019A0001F910F9108958F929F92AF92BF92EF92E5
:1019B000FF920F931F93CF93DF93CDB7DEB7A1971D
:1019C0000FB6F894DEBF0FBECDBF7C01FA01CB018C
:1019D00019A2223008F42AE08E010F5D1F4F822EDB
:1019E000912CB12CA12CBF01A50194010E94600F84
:1019F000F901CA016A300CF5605DD8016E938D0162
:101A0000232B242B252B79F790E080E0109721F0F1
:101A1000BD01C7010E94160CA1960FB6F894DEBF57
:101A20000FBECDBFDF91CF911F910F91FF90EF902F
:101A3000BF90AF909F908F900895695CDECFCF925A
:101A4000DF92EF92FF920F931F93CF93DF932115B5
:101A5000310581F4DC01ED91FC910190F081E02DE4
:101A6000642FDF91CF911F910F91FF90EF90DF9046
:101A7000CF9009942A30310501F52AE077FF1DC087
:101A80006A017B01EC016DE20E945F0C8C0144272E
:101A90005527BA014C195D096E097F092AE0CE016C
:101AA0000E94D30C800F911FDF91CF911F910F9156
:101AB000FF90EF90DF90CF900895DF91CF911F912D
:101AC0000F91FF90EF90DF90CF900C94D30C9A0180
:101AD000AB01770F660B770B0C941F0D0F931F93C1
:101AE000CF93DF93EC010E94670D8C01CE010E9421
:101AF000700C800F911FDF91CF911F910F9108956E
:101B00000F931F93CF93DF93EC010E941F0D8C0165
:101B1000CE010E94700C800F911FDF91CF911F9119
:101B20000F9108952115310541F4DC01ED91FC91EF
:101B30000190F081E02D642F09940C94D30C9A014C
:101B4000462F50E070E060E00C94920D0F931F93CD
:101B5000CF93DF93EC010E949F0D8C01CE010E9478
:101B6000700C800F911FDF91CF911F910F910895FD
:101B70009A01AB0170E060E00C94920D0F931F93FB
:101B8000CF93DF93EC010E94B80D8C01CE010E942F
:101B9000700C800F911FDF91CF911F910F910895CD
:101BA0000F931F93CF93DF93EC010E94920D8C0152
:101BB000CE010E94700C800F911FDF91CF911F9179
:101BC0000F9108952F923F924F925F926F927F9262
:101BD0008F929F92AF92BF92CF92DF92EF92FF923D
:101BE0001F93CF93DF93EC016A017B01722EAB014F
:101BF0009601CB01B6010E94F21168E871E08111F3
:101C000026C046015701E894B7F82FEF3FEF4FE7A2
:101C10005FE7C501B4010E94F21181110CC02FEFE2
:101C20003FEF4FE75FE7C501B4010E9428106CE861
:101C300071E0181664F02FEF3FEF4FE75FE4C70144
:101C4000B6010E9480111816B4F460E971E0CE016B
:101C5000DF91CF911F91FF90EF90DF90CF90BF90D9
:101C6000AF909F908F907F906F905F904F903F903C
:101C70002F900C94160C2FEF3FEF4FE75FECC7014E
:101C8000B6010E94281087FDE0CF20E030E0A901D6
:101C9000C701B6010E942810312C212C87FF09C0F2
:101CA0006DE2CE010E945F0C1C01F7FAF094F7F888
:101CB000F09410E060E070E080E09FE3711641F086
:101CC00020E030E040E251E40E942D101F5FF6CF8B
:101CD000A70196010E94BC0F2B013C010E949F109E
:101CE0004B015C012AE0BC01A401CE010E94D30C8F
:101CF0007C01E20CF31C1123B1F1C501B4010E9477
:101D0000CE109B01AC01C301B2010E94BB0F4B017D
:101D10005C016EE2CE010E945F0CE80EF91E1150CC
:101D200010F120E030E040E251E4C501B4010E942E
:101D300085112B013C010E949F104B014AE050E0AD
:101D4000CE010E94B80DE80EF91EB40190E080E0CB
:101D50000E94CE109B01AC01C301B2010E94BB0FD7
:101D60004B015C01DCCFC701DF91CF911F91FF9048
:101D7000EF90DF90CF90BF90AF909F908F907F902B
:101D80006F905F904F903F902F9008950C94E20DCC
:101D90000F931F93CF93DF93EC010E94E20D8C0110
:101DA000CE010E94700C800F911FDF91CF911F9187
:101DB0000F91089508958CEB91E00C94870320E037
:101DC00043E062E08CEB91E00E94E003E4E9F1E0A3
:101DD00016821782108611868FEF9FEFDC018287B3
:101DE0009387A487B58717A216A28CEB91E095A3E1
:101DF00084A393A382A3089590E080E00895EFE187
:101E0000F2E01382128288EE93E0A0E0B0E08483D7
:101E10009583A683B78385E691E0918380830895B7
:101E2000ECEEF2E01382128288EE93E0A0E0B0E0E4
:101E300084839583A683B78387E791E0918380832A
:101E400085EC90E09587848784EC90E0978786877F
:101E500080EC90E0918B808B81EC90E0938B828B77
:101E600082EC90E0958B848B86EC90E0978B868B50
:101E7000118E128E138E148E08950E942D090E94C9
:101E8000E70B0E949500C1E6DAE00E948F002097E0
:101E9000E1F30E94610AF9CF97FB072E16F4009434
:101EA00007D077FD09D00E94A10F07FC05D03EF4B2
:101EB000909581959F4F0895709561957F4F0895F6
:101EC000A1E21A2EAA1BBB1BFD010DC0AA1FBB1F3E
:101ED000EE1FFF1FA217B307E407F50720F0A21BB0
:101EE000B30BE40BF50B661F771F881F991F1A941D
:101EF00069F760957095809590959B01AC01BD0147
:101F0000CF010895052E97FB1EF400940E94990FAF
:101F100057FD07D00E94600F07FC03D04EF40C94CD
:101F2000990F50954095309521953F4F4F4F5F4FFA
:101F3000089590958095709561957F4F8F4F9F4F35
:101F40000895AA1BBB1B51E107C0AA1FBB1FA61700
:101F5000B70710F0A61BB70B881F991F5A95A9F752
:101F600080959095BC01CD010895EE0FFF1F05905F
:101F7000F491E02D09945058BB27AA270E94D30F53
:101F80000C9446110E94381138F00E943F1120F045
:101F900039F49F3F19F426F40C9435110EF4E095B2
:101FA000E7FB0C942F11E92F0E94571158F3BA1731
:101FB000620773078407950720F079F4A6F50C945F
:101FC00079110EF4E0950B2EBA2FA02D0B01B9015B
:101FD00090010C01CA01A0011124FF27591B99F09F
:101FE000593F50F4503E68F11A16F040A22F232FAB
:101FF000342F4427585FF3CF469537952795A795FB
:10200000F0405395C9F77EF41F16BA0B620B730BA1
:10201000840BBAF09150A1F0FF0FBB1F661F771F12
:10202000881FC2F70EC0BA0F621F731F841F48F4C7
:10203000879577956795B795F7959E3F08F0B0CF50
:102040009395880F08F09927EE0F97958795089537
:102050000E940B1108F481E008950E9441100C9435
:1020600046110E943F1158F00E94381140F029F4A7
:102070005F3F29F00C942F1151110C947A110C949C
:1020800035110E94571168F39923B1F3552391F349
:10209000951B550BBB27AA2762177307840738F0D7
:1020A0009F5F5F4F220F331F441FAA1FA9F335D034
:1020B0000E2E3AF0E0E832D091505040E695001CE8
:1020C000CAF72BD0FE2F29D0660F771F881FBB1FA2
:1020D000261737074807AB07B0E809F0BB0B802D80
:1020E000BF01FF2793585F4F3AF09E3F510578F0AC
:1020F0000C942F110C947A115F3FE4F3983ED4F3C3
:10210000869577956795B795F7959F5FC9F7880F7F
:10211000911D9695879597F90895E1E0660F771FD1
:10212000881FBB1F621773078407BA0720F0621B62
:10213000730B840BBA0BEE1F88F7E09508950E948D
:102140005F1188F09F5798F0B92F9927B751B0F0D9
:10215000E1F0660F771F881F991F1AF0BA95C9F72B
:1021600014C0B13091F00E947911B1E008950C943F
:102170007911672F782F8827B85F39F0B93FCCF3F2
:10218000869577956795B395D9F73EF490958095A8
:10219000709561957F4F8F4F9F4F0895E89409C0C8
:1021A00097FB3EF490958095709561957F4F8F4F8A
:1021B0009F4F9923A9F0F92F96E9BB279395F695A0
:1021C000879577956795B795F111F8CFFAF4BB0F1E
:1021D00011F460FF1BC06F5F7F4F8F4F9F4F16C082
:1021E000882311F096E911C0772321F09EE8872F0C
:1021F000762F05C0662371F096E8862F70E060E0C8
:102200002AF09A95660F771F881FDAF7880F969540
:10221000879597F90895990F0008550FAA0BE0E8E4
:10222000FEEF16161706E807F907C0F01216130698
:10223000E407F50798F0621B730B840B950B39F4D8
:102240000A2661F0232B242B252B21F408950A263E
:1022500009F4A140A6958FEF811D811D089597F97E
:102260009F6780E870E060E008959FEF80EC08953C
:1022700000240A9416161706180609060895002465
:102280000A9412161306140605060895092E0394DF
:10229000000C11F4882352F0BB0F40F4BF2B11F453
:1022A00060FF04C06F5F7F4F8F4F9F4F089557FDB2
:1022B0009058440F551F59F05F3F71F04795880FB4
:1022C00097FB991F61F09F3F79F08795089512164B
:1022D00013061406551FF2CF4695F1DF08C01616F7
:1022E00017061806991FF1CF8695710561050894A8
:1022F0000895E894BB2766277727CB0197F90895BF
:102300000E940B1108F48FEF08950E9498110C940D
:1023100046110E94381138F00E943F1120F0952399
:1023200011F00C942F110C94351111240C947A1186
:102330000E94571170F3959FC1F3950F50E0551F00
:10234000629FF001729FBB27F00DB11D639FAA270A
:10235000F00DB11DAA1F649F6627B00DA11D661F59
:10236000829F2227B00DA11D621F739FB00DA11D7A
:10237000621F839FA00D611D221F749F3327A00D34
:10238000611D231F849F600D211D822F762F6A2FD0
:1023900011249F5750409AF0F1F088234AF0EE0F35
:1023A000FF1FBB1F661F771F881F91505040A9F762
:1023B0009E3F510580F00C942F110C947A115F3FD1
:1023C000E4F3983ED4F3869577956795B795F7959E
:1023D000E7959F5FC1F7FE2B880F911D9695879516
:1023E00097F908950E940B11880B990B089510E03E
:1023F000C4E6D0E004C0FE010E94B50F2196C536A8
:08240000D107C9F7F894FFCFE2
:10240800446964206E6F742066696E642066696E24
:102418006765727072696E742073656E736F72206F
:102428003A2800466F756E642066696E676572703B
:1024380072696E742073656E736F722100436F75D5
:102448006C646E27742066696E64205254430000E1
:102458000000003C02E90BFC0E9802B1021B029935
:102468000200000000FF042E05FC0EC8049F04A60D
:1024780004B90400000000B10AE90B520A910A24C9
:102488000A3E0A300A0D0A006E616E00696E660027
:042498006F766600F5
:00000001FF
